{
  "_format": "hh-sol-artifact-1",
  "contractName": "CreditOracle",
  "sourceName": "contracts/CreditOracle.sol",
  "abi": [
    {
      "inputs": [],
      "stateMutability": "nonpayable",
      "type": "constructor"
    },
    {
      "anonymous": false,
      "inputs": [
        {
          "indexed": true,
          "internalType": "address",
          "name": "agent",
          "type": "address"
        },
        {
          "indexed": false,
          "internalType": "uint256",
          "name": "score",
          "type": "uint256"
        }
      ],
      "name": "CreditScoreCalculated",
      "type": "event"
    },
    {
      "inputs": [],
      "name": "accountAgeWeight",
      "outputs": [
        {
          "internalType": "uint256",
          "name": "",
          "type": "uint256"
        }
      ],
      "stateMutability": "view",
      "type": "function"
    },
    {
      "inputs": [
        {
          "internalType": "address",
          "name": "",
          "type": "address"
        }
      ],
      "name": "accountCreatedAt",
      "outputs": [
        {
          "internalType": "uint256",
          "name": "",
          "type": "uint256"
        }
      ],
      "stateMutability": "view",
      "type": "function"
    },
    {
      "inputs": [],
      "name": "baseScore",
      "outputs": [
        {
          "internalType": "uint256",
          "name": "",
          "type": "uint256"
        }
      ],
      "stateMutability": "view",
      "type": "function"
    },
    {
      "inputs": [
        {
          "internalType": "address",
          "name": "_agent",
          "type": "address"
        }
      ],
      "name": "calculateCreditScore",
      "outputs": [
        {
          "internalType": "uint256",
          "name": "",
          "type": "uint256"
        }
      ],
      "stateMutability": "view",
      "type": "function"
    },
    {
      "inputs": [
        {
          "internalType": "address",
          "name": "",
          "type": "address"
        }
      ],
      "name": "clawhubSales",
      "outputs": [
        {
          "internalType": "uint256",
          "name": "",
          "type": "uint256"
        }
      ],
      "stateMutability": "view",
      "type": "function"
    },
    {
      "inputs": [],
      "name": "clawhubWeight",
      "outputs": [
        {
          "internalType": "uint256",
          "name": "",
          "type": "uint256"
        }
      ],
      "stateMutability": "view",
      "type": "function"
    },
    {
      "inputs": [],
      "name": "openworkContract",
      "outputs": [
        {
          "internalType": "address",
          "name": "",
          "type": "address"
        }
      ],
      "stateMutability": "view",
      "type": "function"
    },
    {
      "inputs": [],
      "name": "openworkWeight",
      "outputs": [
        {
          "internalType": "uint256",
          "name": "",
          "type": "uint256"
        }
      ],
      "stateMutability": "view",
      "type": "function"
    },
    {
      "inputs": [],
      "name": "owner",
      "outputs": [
        {
          "internalType": "address",
          "name": "",
          "type": "address"
        }
      ],
      "stateMutability": "view",
      "type": "function"
    },
    {
      "inputs": [
        {
          "internalType": "address",
          "name": "_agent",
          "type": "address"
        }
      ],
      "name": "registerAgent",
      "outputs": [],
      "stateMutability": "nonpayable",
      "type": "function"
    },
    {
      "inputs": [
        {
          "internalType": "address",
          "name": "_openwork",
          "type": "address"
        },
        {
          "internalType": "address",
          "name": "_simmer",
          "type": "address"
        }
      ],
      "name": "setDataSources",
      "outputs": [],
      "stateMutability": "nonpayable",
      "type": "function"
    },
    {
      "inputs": [
        {
          "internalType": "uint256",
          "name": "_openwork",
          "type": "uint256"
        },
        {
          "internalType": "uint256",
          "name": "_simmer",
          "type": "uint256"
        },
        {
          "internalType": "uint256",
          "name": "_clawhub",
          "type": "uint256"
        },
        {
          "internalType": "uint256",
          "name": "_age",
          "type": "uint256"
        }
      ],
      "name": "setWeights",
      "outputs": [],
      "stateMutability": "nonpayable",
      "type": "function"
    },
    {
      "inputs": [],
      "name": "simmerContract",
      "outputs": [
        {
          "internalType": "address",
          "name": "",
          "type": "address"
        }
      ],
      "stateMutability": "view",
      "type": "function"
    },
    {
      "inputs": [],
      "name": "simmerWeight",
      "outputs": [
        {
          "internalType": "uint256",
          "name": "",
          "type": "uint256"
        }
      ],
      "stateMutability": "view",
      "type": "function"
    },
    {
      "inputs": [
        {
          "internalType": "address",
          "name": "_agent",
          "type": "address"
        },
        {
          "internalType": "uint256",
          "name": "_sales",
          "type": "uint256"
        }
      ],
      "name": "updateClawhubSales",
      "outputs": [],
      "stateMutability": "nonpayable",
      "type": "function"
    }
  ],
  "bytecode": "0x60806040526109c46003556107d06004556105dc6005556101f4600655610fa060075534801561002e57600080fd5b50600080546001600160a01b03191633179055610838806100506000396000f3fe608060405234801561001057600080fd5b50600436106100f55760003560e01c8063a76135c111610097578063cfb559ce11610066578063cfb559ce146101fe578063cff5013114610207578063e3be641214610210578063f1c3753a1461021957600080fd5b8063a76135c1146101af578063aa14e711146101c2578063b5620100146101e2578063bb80f32b146101eb57600080fd5b806374b7ee6d116100d357806374b7ee6d1461015657806385bb7f1f1461017657806388ac6d01146101895780638da5cb5b1461019c57600080fd5b8063306b9bb9146100fa578063332b7c661461010f57806356a316881461012b575b600080fd5b61010d610108366004610683565b61022c565b005b61011860035481565b6040519081526020015b60405180910390f35b60025461013e906001600160a01b031681565b6040516001600160a01b039091168152602001610122565b610118610164366004610683565b60096020526000908152604090205481565b60015461013e906001600160a01b031681565b61010d61019736600461069e565b61026a565b60005461013e906001600160a01b031681565b61010d6101bd3660046106d1565b6102cb565b6101186101d0366004610683565b60086020526000908152604090205481565b61011860045481565b61010d6101f9366004610703565b61037a565b61011860075481565b61011860065481565b61011860055481565b610118610227366004610683565b6103c0565b6001600160a01b0381166000908152600860205260408120549003610267576001600160a01b03811660009081526008602052604090204290555b50565b6000546001600160a01b0316331461029d5760405162461bcd60e51b81526004016102949061072d565b60405180910390fd5b600180546001600160a01b039384166001600160a01b03199182161790915560028054929093169116179055565b6000546001600160a01b031633146102f55760405162461bcd60e51b81526004016102949061072d565b6007546127109082846103088789610766565b6103129190610766565b61031c9190610766565b6103269190610766565b11156103665760405162461bcd60e51b815260206004820152600f60248201526e496e76616c6964207765696768747360881b6044820152606401610294565b600393909355600491909155600555600655565b6000546001600160a01b031633146103a45760405162461bcd60e51b81526004016102949061072d565b6001600160a01b03909116600090815260096020526040902055565b60075460009061012c90612710906103da90610226610779565b6103e49190610790565b6103ee9082610766565b6001549091506001600160a01b03161561049657600154604051634e44d07160e11b81526001600160a01b03858116600483015290911690639c89a0e290602401602060405180830381865afa925050508015610468575060408051601f3d908101601f19168201909252610465918101906107b2565b60015b15610496576127106003548261047e9190610779565b6104889190610790565b6104929083610766565b9150505b6002546001600160a01b03161561055857600254604051636d048fa560e01b81526001600160a01b03858116600483015290911690636d048fa5906024016040805180830381865afa92505050801561050c575060408051601f3d908101601f19168201909252610509918101906107cb565b60015b1561055857600061052b610523620f424085610790565b61271061064d565b90506127106004548261053e9190610779565b6105489190610790565b6105529085610766565b93505050505b6001600160a01b03831660009081526009602052604081205490610580610523606484610790565b9050612710600554826105939190610779565b61059d9190610790565b6105a79084610766565b6001600160a01b03861660009081526008602052604090205490935015610638576001600160a01b03851660009081526008602052604081205462015180906105f090426107ef565b6105fa9190610790565b9050600061060c61052383600a610779565b90506127106006548261061f9190610779565b6106299190610790565b6106339086610766565b945050505b6106448361035261064d565b95945050505050565b600081831061065c578161065e565b825b90505b92915050565b80356001600160a01b038116811461067e57600080fd5b919050565b60006020828403121561069557600080fd5b61065e82610667565b600080604083850312156106b157600080fd5b6106ba83610667565b91506106c860208401610667565b90509250929050565b600080600080608085870312156106e757600080fd5b5050823594602084013594506040840135936060013592509050565b6000806040838503121561071657600080fd5b61071f83610667565b946020939093013593505050565b6020808252600990820152682737ba1037bbb732b960b91b604082015260600190565b634e487b7160e01b600052601160045260246000fd5b8082018082111561066157610661610750565b808202811582820484141761066157610661610750565b6000826107ad57634e487b7160e01b600052601260045260246000fd5b500490565b6000602082840312156107c457600080fd5b5051919050565b600080604083850312156107de57600080fd5b505080516020909101519092909150565b818103818111156106615761066161075056fea264697066735822122055230815361935a44078da50d377d0dbe05312e9cfbdad5c5294a71736d5443064736f6c63430008130033",
  "linkReferences": {},
  "deployedLinkReferences": {}
}