{
  "_format": "hh-sol-artifact-1",
  "contractName": "ACNAutoRepay",
  "sourceName": "contracts/ACNAutoRepay.sol",
  "abi": [
    {
      "inputs": [
        {
          "internalType": "address",
          "name": "_acnAddress",
          "type": "address"
        },
        {
          "internalType": "address",
          "name": "_usdcAddress",
          "type": "address"
        }
      ],
      "stateMutability": "nonpayable",
      "type": "constructor"
    },
    {
      "anonymous": false,
      "inputs": [
        {
          "indexed": true,
          "internalType": "address",
          "name": "agent",
          "type": "address"
        },
        {
          "indexed": false,
          "internalType": "uint256",
          "name": "loanId",
          "type": "uint256"
        },
        {
          "indexed": false,
          "internalType": "uint256",
          "name": "threshold",
          "type": "uint256"
        },
        {
          "indexed": false,
          "internalType": "uint256",
          "name": "minBalance",
          "type": "uint256"
        }
      ],
      "name": "AutoRepayConfigured",
      "type": "event"
    },
    {
      "anonymous": false,
      "inputs": [
        {
          "indexed": true,
          "internalType": "address",
          "name": "agent",
          "type": "address"
        },
        {
          "indexed": true,
          "internalType": "uint256",
          "name": "loanId",
          "type": "uint256"
        }
      ],
      "name": "AutoRepayDisabled",
      "type": "event"
    },
    {
      "anonymous": false,
      "inputs": [
        {
          "indexed": true,
          "internalType": "address",
          "name": "agent",
          "type": "address"
        },
        {
          "indexed": true,
          "internalType": "uint256",
          "name": "loanId",
          "type": "uint256"
        },
        {
          "indexed": false,
          "internalType": "uint256",
          "name": "amount",
          "type": "uint256"
        }
      ],
      "name": "AutoRepayExecuted",
      "type": "event"
    },
    {
      "inputs": [],
      "name": "acn",
      "outputs": [
        {
          "internalType": "contract AgentCreditNetwork",
          "name": "",
          "type": "address"
        }
      ],
      "stateMutability": "view",
      "type": "function"
    },
    {
      "inputs": [
        {
          "internalType": "address",
          "name": "",
          "type": "address"
        },
        {
          "internalType": "uint256",
          "name": "",
          "type": "uint256"
        }
      ],
      "name": "autoRepayConfigs",
      "outputs": [
        {
          "internalType": "bool",
          "name": "enabled",
          "type": "bool"
        },
        {
          "internalType": "uint256",
          "name": "threshold",
          "type": "uint256"
        },
        {
          "internalType": "uint256",
          "name": "minBalance",
          "type": "uint256"
        },
        {
          "internalType": "uint256",
          "name": "loanId",
          "type": "uint256"
        },
        {
          "internalType": "uint256",
          "name": "createdAt",
          "type": "uint256"
        }
      ],
      "stateMutability": "view",
      "type": "function"
    },
    {
      "inputs": [
        {
          "internalType": "address",
          "name": "",
          "type": "address"
        }
      ],
      "name": "autoRepayEnabled",
      "outputs": [
        {
          "internalType": "bool",
          "name": "",
          "type": "bool"
        }
      ],
      "stateMutability": "view",
      "type": "function"
    },
    {
      "inputs": [
        {
          "internalType": "address",
          "name": "_agent",
          "type": "address"
        }
      ],
      "name": "checkAndExecuteAutoRepay",
      "outputs": [
        {
          "internalType": "bool",
          "name": "executed",
          "type": "bool"
        },
        {
          "internalType": "uint256",
          "name": "loanId",
          "type": "uint256"
        }
      ],
      "stateMutability": "nonpayable",
      "type": "function"
    },
    {
      "inputs": [
        {
          "internalType": "address",
          "name": "_agent",
          "type": "address"
        }
      ],
      "name": "checkAutoRepayStatus",
      "outputs": [
        {
          "internalType": "bool",
          "name": "wouldTrigger",
          "type": "bool"
        },
        {
          "internalType": "uint256",
          "name": "loanId",
          "type": "uint256"
        },
        {
          "internalType": "uint256",
          "name": "amount",
          "type": "uint256"
        }
      ],
      "stateMutability": "view",
      "type": "function"
    },
    {
      "inputs": [
        {
          "internalType": "uint256",
          "name": "_loanId",
          "type": "uint256"
        },
        {
          "internalType": "uint256",
          "name": "_threshold",
          "type": "uint256"
        },
        {
          "internalType": "uint256",
          "name": "_minBalance",
          "type": "uint256"
        }
      ],
      "name": "configureAutoRepay",
      "outputs": [],
      "stateMutability": "nonpayable",
      "type": "function"
    },
    {
      "inputs": [
        {
          "internalType": "uint256",
          "name": "_loanId",
          "type": "uint256"
        }
      ],
      "name": "disableAutoRepay",
      "outputs": [],
      "stateMutability": "nonpayable",
      "type": "function"
    },
    {
      "inputs": [
        {
          "internalType": "address",
          "name": "_agent",
          "type": "address"
        },
        {
          "internalType": "uint256",
          "name": "_loanId",
          "type": "uint256"
        }
      ],
      "name": "getAutoRepayConfig",
      "outputs": [
        {
          "components": [
            {
              "internalType": "bool",
              "name": "enabled",
              "type": "bool"
            },
            {
              "internalType": "uint256",
              "name": "threshold",
              "type": "uint256"
            },
            {
              "internalType": "uint256",
              "name": "minBalance",
              "type": "uint256"
            },
            {
              "internalType": "uint256",
              "name": "loanId",
              "type": "uint256"
            },
            {
              "internalType": "uint256",
              "name": "createdAt",
              "type": "uint256"
            }
          ],
          "internalType": "struct ACNAutoRepay.AutoRepayConfig",
          "name": "",
          "type": "tuple"
        }
      ],
      "stateMutability": "view",
      "type": "function"
    },
    {
      "inputs": [
        {
          "internalType": "address",
          "name": "_agent",
          "type": "address"
        }
      ],
      "name": "getAutoRepayConfigs",
      "outputs": [
        {
          "components": [
            {
              "internalType": "bool",
              "name": "enabled",
              "type": "bool"
            },
            {
              "internalType": "uint256",
              "name": "threshold",
              "type": "uint256"
            },
            {
              "internalType": "uint256",
              "name": "minBalance",
              "type": "uint256"
            },
            {
              "internalType": "uint256",
              "name": "loanId",
              "type": "uint256"
            },
            {
              "internalType": "uint256",
              "name": "createdAt",
              "type": "uint256"
            }
          ],
          "internalType": "struct ACNAutoRepay.AutoRepayConfig[]",
          "name": "",
          "type": "tuple[]"
        }
      ],
      "stateMutability": "view",
      "type": "function"
    },
    {
      "inputs": [
        {
          "internalType": "address",
          "name": "_agent",
          "type": "address"
        }
      ],
      "name": "getUSDCBalance",
      "outputs": [
        {
          "internalType": "uint256",
          "name": "",
          "type": "uint256"
        }
      ],
      "stateMutability": "view",
      "type": "function"
    },
    {
      "inputs": [
        {
          "internalType": "address",
          "name": "_agent",
          "type": "address"
        },
        {
          "internalType": "uint256",
          "name": "_loanId",
          "type": "uint256"
        }
      ],
      "name": "hasAutoRepay",
      "outputs": [
        {
          "internalType": "bool",
          "name": "",
          "type": "bool"
        }
      ],
      "stateMutability": "view",
      "type": "function"
    },
    {
      "inputs": [
        {
          "internalType": "address",
          "name": "_newACN",
          "type": "address"
        }
      ],
      "name": "updateACNAddress",
      "outputs": [],
      "stateMutability": "nonpayable",
      "type": "function"
    },
    {
      "inputs": [
        {
          "internalType": "address",
          "name": "_newUSDC",
          "type": "address"
        }
      ],
      "name": "updateUSDCAddress",
      "outputs": [],
      "stateMutability": "nonpayable",
      "type": "function"
    },
    {
      "inputs": [],
      "name": "usdcAddress",
      "outputs": [
        {
          "internalType": "address",
          "name": "",
          "type": "address"
        }
      ],
      "stateMutability": "view",
      "type": "function"
    }
  ],
  "bytecode": "0x60806040523480156200001157600080fd5b506040516200193a3803806200193a833981016040819052620000349162000083565b600080546001600160a01b039384166001600160a01b03199182161790915560038054929093169116179055620000bb565b80516001600160a01b03811681146200007e57600080fd5b919050565b600080604083850312156200009757600080fd5b620000a28362000066565b9150620000b26020840162000066565b90509250929050565b61186f80620000cb6000396000f3fe608060405234801561001057600080fd5b50600436106100ea5760003560e01c80639783e9bc1161008c578063d7272d1311610066578063d7272d131461024e578063e99021af1461026e578063ea7f3bab14610281578063f50b68a01461029457600080fd5b80639783e9bc146101eb578063a4b135271461020b578063a4da4c2e1461021e57600080fd5b80634ec3b211116100c85780634ec3b2111461018f57806368024717146101a45780637d81c4c1146101c5578063844095b0146101d857600080fd5b806302d45457146100ef578063200d96551461011f5780634a0cc6851461015c575b600080fd5b600354610102906001600160a01b031681565b6040516001600160a01b0390911681526020015b60405180910390f35b61013261012d366004611453565b6102be565b6040805195151586526020860194909452928401919091526060830152608082015260a001610116565b61017f61016a36600461147f565b60026020526000908152604090205460ff1681565b6040519015158152602001610116565b6101a261019d3660046114a3565b610310565b005b6101b76101b236600461147f565b6106ee565b604051908152602001610116565b6101a26101d336600461147f565b6107c6565b6101a26101e636600461147f565b610833565b6101fe6101f936600461147f565b6108a0565b60405161011691906114cf565b61017f610219366004611453565b610946565b61023161022c36600461147f565b6109c7565b604080519315158452602084019290925290820152606001610116565b61026161025c366004611453565b610c8e565b604051610116919061154a565b6101a261027c366004611585565b610dae565b600054610102906001600160a01b031681565b6102a76102a236600461147f565b610fc9565b604080519215158352602083019190915201610116565b600160205281600052604060002081815481106102da57600080fd5b60009182526020909120600590910201805460018201546002830154600384015460049094015460ff9093169550909350919085565b60008054604051632820036560e11b8152600481018690528592916001600160a01b03169063504006ca90602401600060405180830381865afa15801561035b573d6000803e3d6000fd5b505050506040513d6000823e601f3d908101601f1916820160405261038391908101906116a9565b60208101519091506001600160a01b031633146103d65760405162461bcd60e51b815260206004820152600c60248201526b2737ba103137b93937bbb2b960a11b60448201526064015b60405180910390fd5b60008054604051632820036560e11b8152600481018890526001600160a01b039091169063504006ca90602401600060405180830381865afa158015610420573d6000803e3d6000fd5b505050506040513d6000823e601f3d908101601f1916820160405261044891908101906116a9565b90506001816101200151600481111561046357610463611796565b146104a25760405162461bcd60e51b815260206004820152600f60248201526e4c6f616e206e6f742061637469766560881b60448201526064016103cd565b8385116104fb5760405162461bcd60e51b815260206004820152602160248201527f5468726573686f6c64206d75737420657863656564206d696e2062616c616e636044820152606560f81b60648201526084016103cd565b6000851161054b5760405162461bcd60e51b815260206004820152601a60248201527f5468726573686f6c64206d75737420626520706f73697469766500000000000060448201526064016103cd565b600061055733886113af565b3360009081526001602052604090205490915081101561060b576040805160a081018252600180825260208083018a9052828401899052606083018b9052426080840152336000908152919052919091208054839081106105ba576105ba6117ac565b6000918252602091829020835160059290920201805460ff19169115159190911781559082015160018201556040820151600282015560608201516003820155608090910151600490910155610689565b336000908152600160208181526040808420815160a0810183528481528084018c81529281018b8152606082018e81524260808401908152845480890186559489529590972091516005909302909101805460ff19169215159290921782559151938101939093555160028301559151600382015590516004909101555b33600081815260026020908152604091829020805460ff1916600117905581518a81529081018990529081018790527fb744f8ee298331cb217fee6ac36728d060cf7752f23b99d65238171747bb598c9060600160405180910390a250505050505050565b6003546040516001600160a01b038381166024830152600092839283929091169060440160408051601f198184030181529181526020820180516001600160e01b03166370a0823160e01b1790525161074791906117c2565b600060405180830381855afa9150503d8060008114610782576040519150601f19603f3d011682016040523d82523d6000602084013e610787565b606091505b509150915081801561079b57506020815110155b156107bc57808060200190518101906107b491906117de565b949350505050565b5060009392505050565b6000546001600160a01b031633146108115760405162461bcd60e51b815260206004820152600e60248201526d139bdd08185d5d1a1bdc9a5e995960921b60448201526064016103cd565b600380546001600160a01b0319166001600160a01b0392909216919091179055565b6000546001600160a01b0316331461087e5760405162461bcd60e51b815260206004820152600e60248201526d139bdd08185d5d1a1bdc9a5e995960921b60448201526064016103cd565b600080546001600160a01b0319166001600160a01b0392909216919091179055565b6001600160a01b0381166000908152600160209081526040808320805482518185028101850190935280835260609492939192909184015b8282101561093b5760008481526020908190206040805160a08101825260058602909201805460ff1615158352600180820154848601526002820154928401929092526003810154606084015260040154608083015290835290920191016108d8565b505050509050919050565b60008061095384846113af565b6001600160a01b038516600090815260016020526040902054909150811061097f5760009150506109c1565b6001600160a01b03841660009081526001602052604090208054829081106109a9576109a96117ac565b600091825260209091206005909102015460ff169150505b92915050565b6001600160a01b0381166000908152600260205260408120548190819060ff166109f957506000915081905080610c87565b6001600160a01b038416600090815260016020526040812090610a1b866106ee565b905060005b8254811015610c7857828181548110610a3b57610a3b6117ac565b600091825260209091206005909102015460ff1615610c66576000805484546001600160a01b039091169063504006ca90869085908110610a7e57610a7e6117ac565b9060005260206000209060050201600301546040518263ffffffff1660e01b8152600401610aae91815260200190565b600060405180830381865afa158015610acb573d6000803e3d6000fd5b505050506040513d6000823e601f3d908101601f19168201604052610af391908101906116a9565b905060018161012001516004811115610b0e57610b0e611796565b14610b195750610c66565b838281548110610b2b57610b2b6117ac565b9060005260206000209060050201600101548310610c64576000805485546001600160a01b039091169063a57475e090879086908110610b6d57610b6d6117ac565b9060005260206000209060050201600301546040518263ffffffff1660e01b8152600401610b9d91815260200190565b602060405180830381865afa158015610bba573d6000803e3d6000fd5b505050506040513d601f19601f82011682018060405250810190610bde91906117de565b90506000818360400151610bf2919061180d565b9050858481548110610c0657610c066117ac565b90600052602060002090600502016002015481610c23919061180d565b8510610c61576001868581548110610c3d57610c3d6117ac565b90600052602060002090600502016003015482985098509850505050505050610c87565b50505b505b80610c7081611820565b915050610a20565b50600080600094509450945050505b9193909250565b610cc26040518060a00160405280600015158152602001600081526020016000815260200160008152602001600081525090565b6000610cce84846113af565b6001600160a01b0385166000908152600160205260409020549091508110610d2b5760405162461bcd60e51b815260206004820152601060248201526f10dbdb999a59c81b9bdd08199bdd5b9960821b60448201526064016103cd565b6001600160a01b0384166000908152600160205260409020805482908110610d5557610d556117ac565b60009182526020918290206040805160a0810182526005909302909101805460ff161515835260018101549383019390935260028301549082015260038201546060820152600490910154608082015291505092915050565b60008054604051632820036560e11b8152600481018490528392916001600160a01b03169063504006ca90602401600060405180830381865afa158015610df9573d6000803e3d6000fd5b505050506040513d6000823e601f3d908101601f19168201604052610e2191908101906116a9565b60208101519091506001600160a01b03163314610e6f5760405162461bcd60e51b815260206004820152600c60248201526b2737ba103137b93937bbb2b960a11b60448201526064016103cd565b6000610e7b33856113af565b336000908152600160205260409020549091508110610ecf5760405162461bcd60e51b815260206004820152601060248201526f10dbdb999a59c81b9bdd08199bdd5b9960821b60448201526064016103cd565b336000908152600160205260408120805483908110610ef057610ef06117ac565b60009182526020822060059190910201805460ff191692151592909217909155805b33600090815260016020526040902054811015610f7e57336000908152600160205260409020805482908110610f4a57610f4a6117ac565b600091825260209091206005909102015460ff1615610f6c5760019150610f7e565b80610f7681611820565b915050610f12565b5033600081815260026020526040808220805460ff1916851515179055518792917f8e430a9ac65e5e69d475c0788dd4d87cd072fee4c7bce2484ab799c45ab75a4691a35050505050565b6001600160a01b038116600090815260026020526040812054819060ff16610ff657506000928392509050565b6001600160a01b038316600090815260016020526040812090611018856106ee565b905060005b82548110156113a157828181548110611038576110386117ac565b600091825260209091206005909102015460ff161561138f576000805484546001600160a01b039091169063504006ca9086908590811061107b5761107b6117ac565b9060005260206000209060050201600301546040518263ffffffff1660e01b81526004016110ab91815260200190565b600060405180830381865afa1580156110c8573d6000803e3d6000fd5b505050506040513d6000823e601f3d908101601f191682016040526110f091908101906116a9565b90506001816101200151600481111561110b5761110b611796565b14611116575061138f565b838281548110611128576111286117ac565b906000526020600020906005020160010154831061138d576000805485546001600160a01b039091169063a57475e09087908690811061116a5761116a6117ac565b9060005260206000209060050201600301546040518263ffffffff1660e01b815260040161119a91815260200190565b602060405180830381865afa1580156111b7573d6000803e3d6000fd5b505050506040513d601f19601f820116820180604052508101906111db91906117de565b905060008183604001516111ef919061180d565b9050858481548110611203576112036117ac565b90600052602060002090600502016002015481611220919061180d565b851061138a5761124186858154811061123b5761123b6117ac565b50600052565b6000868581548110611255576112556117ac565b60009182526020822060059190910201805460ff191692151592909217909155805b87548110156112c657878181548110611292576112926117ac565b600091825260209091206005909102015460ff16156112b457600191506112c6565b806112be81611820565b915050611277565b506001600160a01b038a166000908152600260205260409020805460ff191682151517905586548790869081106112ff576112ff6117ac565b9060005260206000209060050201600301548a6001600160a01b03167f2310ec15b722c6f98f0e13153c5c14969b98f43459e8b111484e0b94b31c84918460405161134c91815260200190565b60405180910390a36001878681548110611368576113686117ac565b9060005260206000209060050201600301549850985050505050505050915091565b50505b505b8061139981611820565b91505061101d565b506000958695509350505050565b6000805b6001600160a01b038416600090815260016020526040902054811015611430576001600160a01b0384166000908152600160205260409020805484919083908110611400576114006117ac565b9060005260206000209060050201600301540361141e5790506109c1565b8061142881611820565b9150506113b3565b506000199392505050565b6001600160a01b038116811461145057600080fd5b50565b6000806040838503121561146657600080fd5b82356114718161143b565b946020939093013593505050565b60006020828403121561149157600080fd5b813561149c8161143b565b9392505050565b6000806000606084860312156114b857600080fd5b505081359360208301359350604090920135919050565b6020808252825182820181905260009190848201906040850190845b8181101561153e5761152b838551805115158252602081015160208301526040810151604083015260608101516060830152608081015160808301525050565b9284019260a092909201916001016114eb565b50909695505050505050565b60a081016109c18284805115158252602081015160208301526040810151604083015260608101516060830152608081015160808301525050565b60006020828403121561159757600080fd5b5035919050565b634e487b7160e01b600052604160045260246000fd5b604051610160810167ffffffffffffffff811182821017156115d8576115d861159e565b60405290565b80516115e98161143b565b919050565b8051600581106115e957600080fd5b60005b83811015611618578181015183820152602001611600565b50506000910152565b600082601f83011261163257600080fd5b815167ffffffffffffffff8082111561164d5761164d61159e565b604051601f8301601f19908116603f011681019082821181831017156116755761167561159e565b8160405283815286602085880101111561168e57600080fd5b61169f8460208301602089016115fd565b9695505050505050565b6000602082840312156116bb57600080fd5b815167ffffffffffffffff808211156116d357600080fd5b9083019061016082860312156116e857600080fd5b6116f06115b4565b82518152611700602084016115de565b602082015260408301516040820152606083015160608201526080830151608082015260a083015160a082015260c083015160c082015260e083015160e082015261010061174f8185016115de565b908201526101206117618482016115ee565b90820152610140838101518381111561177957600080fd5b61178588828701611621565b918301919091525095945050505050565b634e487b7160e01b600052602160045260246000fd5b634e487b7160e01b600052603260045260246000fd5b600082516117d48184602087016115fd565b9190910192915050565b6000602082840312156117f057600080fd5b5051919050565b634e487b7160e01b600052601160045260246000fd5b808201808211156109c1576109c16117f7565b600060018201611832576118326117f7565b506001019056fea2646970667358221220fdfc533438f60d62d7f73db42eea81036508f77b83fcf19a70d76ada2656ad6064736f6c63430008130033",
  "linkReferences": {},
  "deployedLinkReferences": {}
}