{
  "_format": "hh-sol-artifact-1",
  "contractName": "ACNMessaging",
  "sourceName": "contracts/ACNMessaging.sol",
  "abi": [
    {
      "inputs": [
        {
          "internalType": "address",
          "name": "_acnAddress",
          "type": "address"
        }
      ],
      "stateMutability": "nonpayable",
      "type": "constructor"
    },
    {
      "anonymous": false,
      "inputs": [
        {
          "indexed": true,
          "internalType": "uint256",
          "name": "loanId",
          "type": "uint256"
        },
        {
          "indexed": false,
          "internalType": "address",
          "name": "borrower",
          "type": "address"
        },
        {
          "indexed": false,
          "internalType": "address",
          "name": "lender",
          "type": "address"
        }
      ],
      "name": "ConversationCreated",
      "type": "event"
    },
    {
      "anonymous": false,
      "inputs": [
        {
          "indexed": true,
          "internalType": "uint256",
          "name": "messageId",
          "type": "uint256"
        },
        {
          "indexed": true,
          "internalType": "uint256",
          "name": "loanId",
          "type": "uint256"
        },
        {
          "indexed": true,
          "internalType": "address",
          "name": "sender",
          "type": "address"
        },
        {
          "indexed": false,
          "internalType": "uint256",
          "name": "timestamp",
          "type": "uint256"
        }
      ],
      "name": "MessageSent",
      "type": "event"
    },
    {
      "anonymous": false,
      "inputs": [
        {
          "indexed": true,
          "internalType": "uint256",
          "name": "loanId",
          "type": "uint256"
        },
        {
          "indexed": false,
          "internalType": "address",
          "name": "reader",
          "type": "address"
        },
        {
          "indexed": false,
          "internalType": "uint256",
          "name": "count",
          "type": "uint256"
        }
      ],
      "name": "MessagesRead",
      "type": "event"
    },
    {
      "inputs": [],
      "name": "acn",
      "outputs": [
        {
          "internalType": "contract AgentCreditNetwork",
          "name": "",
          "type": "address"
        }
      ],
      "stateMutability": "view",
      "type": "function"
    },
    {
      "inputs": [
        {
          "internalType": "uint256",
          "name": "",
          "type": "uint256"
        }
      ],
      "name": "conversations",
      "outputs": [
        {
          "internalType": "uint256",
          "name": "loanId",
          "type": "uint256"
        },
        {
          "internalType": "address",
          "name": "borrower",
          "type": "address"
        },
        {
          "internalType": "address",
          "name": "lender",
          "type": "address"
        },
        {
          "internalType": "uint256",
          "name": "messageCount",
          "type": "uint256"
        },
        {
          "internalType": "uint256",
          "name": "lastMessageAt",
          "type": "uint256"
        },
        {
          "internalType": "bool",
          "name": "isActive",
          "type": "bool"
        }
      ],
      "stateMutability": "view",
      "type": "function"
    },
    {
      "inputs": [
        {
          "internalType": "uint256",
          "name": "_loanId",
          "type": "uint256"
        }
      ],
      "name": "createConversation",
      "outputs": [],
      "stateMutability": "nonpayable",
      "type": "function"
    },
    {
      "inputs": [
        {
          "internalType": "address",
          "name": "_agent",
          "type": "address"
        },
        {
          "internalType": "uint256",
          "name": "_maxResults",
          "type": "uint256"
        }
      ],
      "name": "getAgentConversations",
      "outputs": [
        {
          "internalType": "uint256[]",
          "name": "",
          "type": "uint256[]"
        }
      ],
      "stateMutability": "view",
      "type": "function"
    },
    {
      "inputs": [
        {
          "internalType": "uint256",
          "name": "_loanId",
          "type": "uint256"
        }
      ],
      "name": "getConversation",
      "outputs": [
        {
          "components": [
            {
              "internalType": "uint256",
              "name": "loanId",
              "type": "uint256"
            },
            {
              "internalType": "address",
              "name": "borrower",
              "type": "address"
            },
            {
              "internalType": "address",
              "name": "lender",
              "type": "address"
            },
            {
              "internalType": "uint256",
              "name": "messageCount",
              "type": "uint256"
            },
            {
              "internalType": "uint256",
              "name": "lastMessageAt",
              "type": "uint256"
            },
            {
              "internalType": "bool",
              "name": "isActive",
              "type": "bool"
            }
          ],
          "internalType": "struct ACNMessaging.Conversation",
          "name": "",
          "type": "tuple"
        }
      ],
      "stateMutability": "view",
      "type": "function"
    },
    {
      "inputs": [
        {
          "internalType": "uint256",
          "name": "_loanId",
          "type": "uint256"
        }
      ],
      "name": "getLatestMessage",
      "outputs": [
        {
          "components": [
            {
              "internalType": "uint256",
              "name": "id",
              "type": "uint256"
            },
            {
              "internalType": "uint256",
              "name": "loanId",
              "type": "uint256"
            },
            {
              "internalType": "address",
              "name": "sender",
              "type": "address"
            },
            {
              "internalType": "string",
              "name": "content",
              "type": "string"
            },
            {
              "internalType": "uint256",
              "name": "timestamp",
              "type": "uint256"
            },
            {
              "internalType": "bool",
              "name": "isRead",
              "type": "bool"
            }
          ],
          "internalType": "struct ACNMessaging.Message",
          "name": "",
          "type": "tuple"
        }
      ],
      "stateMutability": "view",
      "type": "function"
    },
    {
      "inputs": [
        {
          "internalType": "uint256",
          "name": "_loanId",
          "type": "uint256"
        }
      ],
      "name": "getMessageCount",
      "outputs": [
        {
          "internalType": "uint256",
          "name": "",
          "type": "uint256"
        }
      ],
      "stateMutability": "view",
      "type": "function"
    },
    {
      "inputs": [
        {
          "internalType": "uint256",
          "name": "_loanId",
          "type": "uint256"
        }
      ],
      "name": "getMessages",
      "outputs": [
        {
          "components": [
            {
              "internalType": "uint256",
              "name": "id",
              "type": "uint256"
            },
            {
              "internalType": "uint256",
              "name": "loanId",
              "type": "uint256"
            },
            {
              "internalType": "address",
              "name": "sender",
              "type": "address"
            },
            {
              "internalType": "string",
              "name": "content",
              "type": "string"
            },
            {
              "internalType": "uint256",
              "name": "timestamp",
              "type": "uint256"
            },
            {
              "internalType": "bool",
              "name": "isRead",
              "type": "bool"
            }
          ],
          "internalType": "struct ACNMessaging.Message[]",
          "name": "",
          "type": "tuple[]"
        }
      ],
      "stateMutability": "view",
      "type": "function"
    },
    {
      "inputs": [
        {
          "internalType": "uint256",
          "name": "_loanId",
          "type": "uint256"
        },
        {
          "internalType": "uint256",
          "name": "_page",
          "type": "uint256"
        },
        {
          "internalType": "uint256",
          "name": "_pageSize",
          "type": "uint256"
        }
      ],
      "name": "getMessagesPaginated",
      "outputs": [
        {
          "components": [
            {
              "internalType": "uint256",
              "name": "id",
              "type": "uint256"
            },
            {
              "internalType": "uint256",
              "name": "loanId",
              "type": "uint256"
            },
            {
              "internalType": "address",
              "name": "sender",
              "type": "address"
            },
            {
              "internalType": "string",
              "name": "content",
              "type": "string"
            },
            {
              "internalType": "uint256",
              "name": "timestamp",
              "type": "uint256"
            },
            {
              "internalType": "bool",
              "name": "isRead",
              "type": "bool"
            }
          ],
          "internalType": "struct ACNMessaging.Message[]",
          "name": "",
          "type": "tuple[]"
        }
      ],
      "stateMutability": "view",
      "type": "function"
    },
    {
      "inputs": [
        {
          "internalType": "uint256",
          "name": "_loanId",
          "type": "uint256"
        },
        {
          "internalType": "address",
          "name": "_participant",
          "type": "address"
        }
      ],
      "name": "getUnreadCount",
      "outputs": [
        {
          "internalType": "uint256",
          "name": "",
          "type": "uint256"
        }
      ],
      "stateMutability": "view",
      "type": "function"
    },
    {
      "inputs": [
        {
          "internalType": "uint256",
          "name": "_loanId",
          "type": "uint256"
        },
        {
          "internalType": "address",
          "name": "_addr",
          "type": "address"
        }
      ],
      "name": "isParticipant",
      "outputs": [
        {
          "internalType": "bool",
          "name": "",
          "type": "bool"
        }
      ],
      "stateMutability": "view",
      "type": "function"
    },
    {
      "inputs": [
        {
          "internalType": "uint256",
          "name": "_loanId",
          "type": "uint256"
        },
        {
          "internalType": "uint256[]",
          "name": "_messageIds",
          "type": "uint256[]"
        }
      ],
      "name": "markAsRead",
      "outputs": [],
      "stateMutability": "nonpayable",
      "type": "function"
    },
    {
      "inputs": [],
      "name": "messageCounter",
      "outputs": [
        {
          "internalType": "uint256",
          "name": "",
          "type": "uint256"
        }
      ],
      "stateMutability": "view",
      "type": "function"
    },
    {
      "inputs": [
        {
          "internalType": "uint256",
          "name": "",
          "type": "uint256"
        },
        {
          "internalType": "uint256",
          "name": "",
          "type": "uint256"
        }
      ],
      "name": "messages",
      "outputs": [
        {
          "internalType": "uint256",
          "name": "id",
          "type": "uint256"
        },
        {
          "internalType": "uint256",
          "name": "loanId",
          "type": "uint256"
        },
        {
          "internalType": "address",
          "name": "sender",
          "type": "address"
        },
        {
          "internalType": "string",
          "name": "content",
          "type": "string"
        },
        {
          "internalType": "uint256",
          "name": "timestamp",
          "type": "uint256"
        },
        {
          "internalType": "bool",
          "name": "isRead",
          "type": "bool"
        }
      ],
      "stateMutability": "view",
      "type": "function"
    },
    {
      "inputs": [
        {
          "internalType": "uint256",
          "name": "_loanId",
          "type": "uint256"
        },
        {
          "internalType": "string",
          "name": "_content",
          "type": "string"
        }
      ],
      "name": "sendMessage",
      "outputs": [],
      "stateMutability": "nonpayable",
      "type": "function"
    },
    {
      "inputs": [
        {
          "internalType": "address",
          "name": "_newACN",
          "type": "address"
        }
      ],
      "name": "updateACNAddress",
      "outputs": [],
      "stateMutability": "nonpayable",
      "type": "function"
    }
  ],
  "bytecode": "0x608060405234801561001057600080fd5b50604051611f57380380611f5783398101604081905261002f91610054565b600080546001600160a01b0319166001600160a01b0392909216919091179055610084565b60006020828403121561006657600080fd5b81516001600160a01b038116811461007d57600080fd5b9392505050565b611ec4806100936000396000f3fe608060405234801561001057600080fd5b50600436106101005760003560e01c8063a9bf241211610097578063c59fe7cd11610066578063c59fe7cd1461032c578063dd91150b1461033f578063ea7f3bab146103ce578063fa0b8638146103f957600080fd5b8063a9bf2412146102d3578063aae8b592146102f3578063ae36853d14610306578063c0a90fff1461031957600080fd5b8063758d9b89116100d3578063758d9b8914610263578063844095b0146102865780638f2721121461029b5780639cf5c1ee146102c057600080fd5b806307f1ef2c1461010557806346ce82ef1461020c578063529c75881461022c5780635de8249e14610243575b600080fd5b6101b0610113366004611762565b6040805160c081018252600080825260208201819052918101829052606081018290526080810182905260a081019190915250600090815260026020818152604092839020835160c0810185528154815260018201546001600160a01b03908116938201939093529281015490911692820192909252600382015460608201526004820154608082015260059091015460ff16151560a082015290565b60408051825181526020808401516001600160a01b0390811691830191909152838301511691810191909152606080830151908201526080808301519082015260a09182015115159181019190915260c0015b60405180910390f35b61021f61021a366004611793565b610419565b60405161020391906117bf565b61023560035481565b604051908152602001610203565b610256610251366004611762565b61046a565b60405161020391906118b0565b6102766102713660046118c3565b6105fc565b6040519015158152602001610203565b6102996102943660046118f3565b61060f565b005b6102ae6102a9366004611910565b61067c565b60405161020396959493929190611932565b6102356102ce3660046118c3565b610767565b6102e66102e1366004611979565b61081e565b60405161020391906119a5565b610299610301366004611a07565b610abd565b6102e6610314366004611762565b610ff9565b610299610327366004611762565b611147565b61029961033a366004611a83565b61142b565b61039361034d366004611762565b600260208190526000918252604090912080546001820154928201546003830154600484015460059094015492946001600160a01b039081169492169290919060ff1686565b604080519687526001600160a01b039586166020880152939094169285019290925260608401526080830152151560a082015260c001610203565b6000546103e1906001600160a01b031681565b6040516001600160a01b039091168152602001610203565b610235610407366004611762565b60009081526001602052604090205490565b606060008267ffffffffffffffff81111561043657610436611aef565b60405190808252806020026020018201604052801561045f578160200160208202803683370190505b509150505b92915050565b610472611721565b6000828152600160205260409020546104c05760405162461bcd60e51b815260206004820152600b60248201526a4e6f206d6573736167657360a81b60448201526064015b60405180910390fd5b6000828152600160208190526040909120805490916104de91611b1b565b815481106104ee576104ee611b2e565b90600052602060002090600602016040518060c001604052908160008201548152602001600182015481526020016002820160009054906101000a90046001600160a01b03166001600160a01b03166001600160a01b0316815260200160038201805461055a90611b44565b80601f016020809104026020016040519081016040528092919081815260200182805461058690611b44565b80156105d35780601f106105a8576101008083540402835291602001916105d3565b820191906000526020600020905b8154815290600101906020018083116105b657829003601f168201915b50505091835250506004820154602082015260059091015460ff16151560409091015292915050565b6000610608838361166b565b9392505050565b6000546001600160a01b0316331461065a5760405162461bcd60e51b815260206004820152600e60248201526d139bdd08185d5d1a1bdc9a5e995960921b60448201526064016104b7565b600080546001600160a01b0319166001600160a01b0392909216919091179055565b6001602052816000526040600020818154811061069857600080fd5b600091825260209091206006909102018054600182015460028301546003840180549396509194506001600160a01b031692916106d490611b44565b80601f016020809104026020016040519081016040528092919081815260200182805461070090611b44565b801561074d5780601f106107225761010080835404028352916020019161074d565b820191906000526020600020905b81548152906001019060200180831161073057829003601f168201915b50505050600483015460059093015491929160ff16905086565b60008281526001602052604081208190815b81548110156108145781818154811061079457610794611b2e565b600091825260209091206005600690920201015460ff161580156107ef5750846001600160a01b03168282815481106107cf576107cf611b2e565b60009182526020909120600260069092020101546001600160a01b031614155b1561080257826107fe81611b7e565b9350505b8061080c81611b7e565b915050610779565b5090949350505050565b6060600082116108705760405162461bcd60e51b815260206004820152601a60248201527f506167652073697a65206d75737420626520706f73697469766500000000000060448201526064016104b7565b6000848152600160205260408120906108898486611b97565b825490915081106108cf5760408051600080825260208201909252906108c5565b6108b2611721565b8152602001906001900390816108aa5790505b5092505050610608565b60006108db8583611bae565b83549091508111156108eb575081545b60006108f78383611b1b565b905060008167ffffffffffffffff81111561091457610914611aef565b60405190808252806020026020018201604052801561094d57816020015b61093a611721565b8152602001906001900390816109325790505b50905060005b82811015610ab057856109668287611bae565b8154811061097657610976611b2e565b90600052602060002090600602016040518060c001604052908160008201548152602001600182015481526020016002820160009054906101000a90046001600160a01b03166001600160a01b03166001600160a01b031681526020016003820180546109e290611b44565b80601f0160208091040260200160405190810160405280929190818152602001828054610a0e90611b44565b8015610a5b5780601f10610a3057610100808354040283529160200191610a5b565b820191906000526020600020905b815481529060010190602001808311610a3e57829003601f168201915b50505091835250506004820154602082015260059091015460ff1615156040909101528251839083908110610a9257610a92611b2e565b60200260200101819052508080610aa890611b7e565b915050610953565b5098975050505050505050565b82610ac8813361166b565b610b0b5760405162461bcd60e51b8152602060048201526014602482015273139bdd081b1bd85b881c185c9d1a58da5c185b9d60621b60448201526064016104b7565b60008054604051632820036560e11b8152600481018790528692916001600160a01b03169063504006ca90602401600060405180830381865afa158015610b56573d6000803e3d6000fd5b505050506040513d6000823e601f3d908101601f19168201604052610b7e9190810190611c92565b80519091508214610bc75760405162461bcd60e51b8152602060048201526013602482015272131bd85b88191bd95cc81b9bdd08195e1a5cdd606a1b60448201526064016104b7565b83610c145760405162461bcd60e51b815260206004820152601760248201527f4d6573736167652063616e6e6f7420626520656d70747900000000000000000060448201526064016104b7565b6103e8841115610c705760405162461bcd60e51b815260206004820152602160248201527f4d65737361676520746f6f206c6f6e6720286d617820313030302063686172736044820152602960f81b60648201526084016104b7565b6000868152600260205260408120549003610e4d5760008054604051632820036560e11b8152600481018990526001600160a01b039091169063504006ca90602401600060405180830381865afa158015610ccf573d6000803e3d6000fd5b505050506040513d6000823e601f3d908101601f19168201604052610cf79190810190611c92565b90506040518060c0016040528088815260200182602001516001600160a01b031681526020018261010001516001600160a01b031681526020016000815260200142815260200160011515815250600260008981526020019081526020016000206000820151816000015560208201518160010160006101000a8154816001600160a01b0302191690836001600160a01b0316021790555060408201518160020160006101000a8154816001600160a01b0302191690836001600160a01b03160217905550606082015181600301556080820151816004015560a08201518160050160006101000a81548160ff021916908315150217905550905050867fd70c784dd825131008ec90e6edf9e7c7fbca600451fbc1fffa2cb9fb9aa2d5198260200151836101000151604051610e439291906001600160a01b0392831681529116602082015260400190565b60405180910390a2505b60038054906000610e5d83611b7e565b9190505550600160008781526020019081526020016000206040518060c001604052806003548152602001888152602001336001600160a01b0316815260200187878080601f0160208091040260200160405190810160405280939291908181526020018383808284376000920182905250938552505042602080850191909152604093840183905285546001808201885596845292819020855160069094020192835584015194820194909455908201516002820180546001600160a01b0319166001600160a01b039092169190911790556060820151919250906003820190610f489082611dce565b506080820151600482015560a0909101516005909101805460ff19169115159190911790556000868152600260205260408120600301805491610f8a83611b7e565b9190505550426002600088815260200190815260200160002060040181905550336001600160a01b0316866003547f402a45bf1deda6d11334ec5ba68b3cfb7b6d0066d03a8abb09996fd18cffa86542604051610fe991815260200190565b60405180910390a4505050505050565b606060016000838152602001908152602001600020805480602002602001604051908101604052809291908181526020016000905b8282101561113c5760008481526020908190206040805160c081018252600686029092018054835260018101549383019390935260028301546001600160a01b03169082015260038201805491929160608401919061108c90611b44565b80601f01602080910402602001604051908101604052809291908181526020018280546110b890611b44565b80156111055780601f106110da57610100808354040283529160200191611105565b820191906000526020600020905b8154815290600101906020018083116110e857829003601f168201915b5050509183525050600482015460208083019190915260059092015460ff161515604090910152908252600192909201910161102e565b505050509050919050565b60008054604051632820036560e11b8152600481018490528392916001600160a01b03169063504006ca90602401600060405180830381865afa158015611192573d6000803e3d6000fd5b505050506040513d6000823e601f3d908101601f191682016040526111ba9190810190611c92565b805190915082146112035760405162461bcd60e51b8152602060048201526013602482015272131bd85b88191bd95cc81b9bdd08195e1a5cdd606a1b60448201526064016104b7565b6000838152600260205260409020541561125f5760405162461bcd60e51b815260206004820152601b60248201527f436f6e766572736174696f6e20616c726561647920657869737473000000000060448201526064016104b7565b60008054604051632820036560e11b8152600481018690526001600160a01b039091169063504006ca90602401600060405180830381865afa1580156112a9573d6000803e3d6000fd5b505050506040513d6000823e601f3d908101601f191682016040526112d19190810190611c92565b90506040518060c0016040528085815260200182602001516001600160a01b031681526020018261010001516001600160a01b031681526020016000815260200142815260200160011515815250600260008681526020019081526020016000206000820151816000015560208201518160010160006101000a8154816001600160a01b0302191690836001600160a01b0316021790555060408201518160020160006101000a8154816001600160a01b0302191690836001600160a01b03160217905550606082015181600301556080820151816004015560a08201518160050160006101000a81548160ff021916908315150217905550905050837fd70c784dd825131008ec90e6edf9e7c7fbca600451fbc1fffa2cb9fb9aa2d519826020015183610100015160405161141d9291906001600160a01b0392831681529116602082015260400190565b60405180910390a250505050565b82611436813361166b565b6114795760405162461bcd60e51b8152602060048201526014602482015273139bdd081b1bd85b881c185c9d1a58da5c185b9d60621b60448201526064016104b7565b6000805b83811015611621576000600186868481811061149b5761149b611b2e565b905060200201356114ac9190611b1b565b905060005b60008881526001602052604090205481101561160c578686848181106114d9576114d9611b2e565b90506020020135600160008a8152602001908152602001600020828154811061150457611504611b2e565b906000526020600020906006020160000154036115fa57600088815260016020526040902080548290811061153b5761153b611b2e565b600091825260209091206005600690920201015460ff1615801561159d5750600088815260016020526040902080543391908390811061157d5761157d611b2e565b60009182526020909120600260069092020101546001600160a01b031614155b156115f55760008881526001602081905260409091208054839081106115c5576115c5611b2e565b60009182526020909120600690910201600501805460ff1916911515919091179055836115f181611b7e565b9450505b61160c565b8061160481611b7e565b9150506114b1565b5050808061161990611b7e565b91505061147d565b50801561166457604080513381526020810183905286917fd350fc7dddd38b709c23af1ecc584367826f21500826f9101028efaa6b11c9ef910160405180910390a25b5050505050565b60008054604051632820036560e11b81526004810185905282916001600160a01b03169063504006ca90602401600060405180830381865afa1580156116b5573d6000803e3d6000fd5b505050506040513d6000823e601f3d908101601f191682016040526116dd9190810190611c92565b905080602001516001600160a01b0316836001600160a01b0316148061171957508061010001516001600160a01b0316836001600160a01b0316145b949350505050565b6040518060c00160405280600081526020016000815260200160006001600160a01b0316815260200160608152602001600081526020016000151581525090565b60006020828403121561177457600080fd5b5035919050565b6001600160a01b038116811461179057600080fd5b50565b600080604083850312156117a657600080fd5b82356117b18161177b565b946020939093013593505050565b6020808252825182820181905260009190848201906040850190845b818110156117f7578351835292840192918401916001016117db565b50909695505050505050565b60005b8381101561181e578181015183820152602001611806565b50506000910152565b6000815180845261183f816020860160208601611803565b601f01601f19169290920160200192915050565b805182526020810151602083015260018060a01b0360408201511660408301526000606082015160c0606085015261188e60c0850182611827565b90506080830151608085015260a0830151151560a08501528091505092915050565b6020815260006106086020830184611853565b600080604083850312156118d657600080fd5b8235915060208301356118e88161177b565b809150509250929050565b60006020828403121561190557600080fd5b81356106088161177b565b6000806040838503121561192357600080fd5b50508035926020909101359150565b86815285602082015260018060a01b038516604082015260c06060820152600061195f60c0830186611827565b60808301949094525090151560a090910152949350505050565b60008060006060848603121561198e57600080fd5b505081359360208301359350604090920135919050565b6000602080830181845280855180835260408601915060408160051b870101925083870160005b828110156119fa57603f198886030184526119e8858351611853565b945092850192908501906001016119cc565b5092979650505050505050565b600080600060408486031215611a1c57600080fd5b83359250602084013567ffffffffffffffff80821115611a3b57600080fd5b818601915086601f830112611a4f57600080fd5b813581811115611a5e57600080fd5b876020828501011115611a7057600080fd5b6020830194508093505050509250925092565b600080600060408486031215611a9857600080fd5b83359250602084013567ffffffffffffffff80821115611ab757600080fd5b818601915086601f830112611acb57600080fd5b813581811115611ada57600080fd5b8760208260051b8501011115611a7057600080fd5b634e487b7160e01b600052604160045260246000fd5b634e487b7160e01b600052601160045260246000fd5b8181038181111561046457610464611b05565b634e487b7160e01b600052603260045260246000fd5b600181811c90821680611b5857607f821691505b602082108103611b7857634e487b7160e01b600052602260045260246000fd5b50919050565b600060018201611b9057611b90611b05565b5060010190565b808202811582820484141761046457610464611b05565b8082018082111561046457610464611b05565b604051610160810167ffffffffffffffff81118282101715611be557611be5611aef565b60405290565b8051611bf68161177b565b919050565b805160058110611bf657600080fd5b600082601f830112611c1b57600080fd5b815167ffffffffffffffff80821115611c3657611c36611aef565b604051601f8301601f19908116603f01168101908282118183101715611c5e57611c5e611aef565b81604052838152866020858801011115611c7757600080fd5b611c88846020830160208901611803565b9695505050505050565b600060208284031215611ca457600080fd5b815167ffffffffffffffff80821115611cbc57600080fd5b908301906101608286031215611cd157600080fd5b611cd9611bc1565b82518152611ce960208401611beb565b602082015260408301516040820152606083015160608201526080830151608082015260a083015160a082015260c083015160c082015260e083015160e0820152610100611d38818501611beb565b90820152610120611d4a848201611bfb565b908201526101408381015183811115611d6257600080fd5b611d6e88828701611c0a565b918301919091525095945050505050565b601f821115611dc957600081815260208120601f850160051c81016020861015611da65750805b601f850160051c820191505b81811015611dc557828155600101611db2565b5050505b505050565b815167ffffffffffffffff811115611de857611de8611aef565b611dfc81611df68454611b44565b84611d7f565b602080601f831160018114611e315760008415611e195750858301515b600019600386901b1c1916600185901b178555611dc5565b600085815260208120601f198616915b82811015611e6057888601518255948401946001909101908401611e41565b5085821015611e7e5787850151600019600388901b60f8161c191681555b5050505050600190811b0190555056fea26469706673582212209234a0d1986e0d4bad601d1c5320dfb49507fb3d9d2d210867d1ab507eae66df64736f6c63430008130033",
  "linkReferences": {},
  "deployedLinkReferences": {}
}