{"contracts/CreditOracle.sol":{"CreditOracle":{"abi":[{"inputs":[],"stateMutability":"nonpayable","type":"constructor"},{"anonymous":false,"inputs":[{"indexed":true,"internalType":"address","name":"agent","type":"address"},{"indexed":false,"internalType":"uint256","name":"score","type":"uint256"}],"name":"CreditScoreCalculated","type":"event"},{"inputs":[],"name":"accountAgeWeight","outputs":[{"internalType":"uint256","name":"","type":"uint256"}],"stateMutability":"view","type":"function"},{"inputs":[{"internalType":"address","name":"","type":"address"}],"name":"accountCreatedAt","outputs":[{"internalType":"uint256","name":"","type":"uint256"}],"stateMutability":"view","type":"function"},{"inputs":[],"name":"baseScore","outputs":[{"internalType":"uint256","name":"","type":"uint256"}],"stateMutability":"view","type":"function"},{"inputs":[{"internalType":"address","name":"_agent","type":"address"}],"name":"calculateCreditScore","outputs":[{"internalType":"uint256","name":"","type":"uint256"}],"stateMutability":"view","type":"function"},{"inputs":[{"internalType":"address","name":"","type":"address"}],"name":"clawhubSales","outputs":[{"internalType":"uint256","name":"","type":"uint256"}],"stateMutability":"view","type":"function"},{"inputs":[],"name":"clawhubWeight","outputs":[{"internalType":"uint256","name":"","type":"uint256"}],"stateMutability":"view","type":"function"},{"inputs":[],"name":"openworkContract","outputs":[{"internalType":"address","name":"","type":"address"}],"stateMutability":"view","type":"function"},{"inputs":[],"name":"openworkWeight","outputs":[{"internalType":"uint256","name":"","type":"uint256"}],"stateMutability":"view","type":"function"},{"inputs":[],"name":"owner","outputs":[{"internalType":"address","name":"","type":"address"}],"stateMutability":"view","type":"function"},{"inputs":[{"internalType":"address","name":"_agent","type":"address"}],"name":"registerAgent","outputs":[],"stateMutability":"nonpayable","type":"function"},{"inputs":[{"internalType":"address","name":"_openwork","type":"address"},{"internalType":"address","name":"_simmer","type":"address"}],"name":"setDataSources","outputs":[],"stateMutability":"nonpayable","type":"function"},{"inputs":[{"internalType":"uint256","name":"_openwork","type":"uint256"},{"internalType":"uint256","name":"_simmer","type":"uint256"},{"internalType":"uint256","name":"_clawhub","type":"uint256"},{"internalType":"uint256","name":"_age","type":"uint256"}],"name":"setWeights","outputs":[],"stateMutability":"nonpayable","type":"function"},{"inputs":[],"name":"simmerContract","outputs":[{"internalType":"address","name":"","type":"address"}],"stateMutability":"view","type":"function"},{"inputs":[],"name":"simmerWeight","outputs":[{"internalType":"uint256","name":"","type":"uint256"}],"stateMutability":"view","type":"function"},{"inputs":[{"internalType":"address","name":"_agent","type":"address"},{"internalType":"uint256","name":"_sales","type":"uint256"}],"name":"updateClawhubSales","outputs":[],"stateMutability":"nonpayable","type":"function"}],"evm":{"bytecode":{"linkReferences":{},"object":"60806040526109c46003556107d06004556105dc6005556101f4600655610fa060075534801561002e57600080fd5b50600080546001600160a01b03191633179055610838806100506000396000f3fe608060405234801561001057600080fd5b50600436106100f55760003560e01c8063a76135c111610097578063cfb559ce11610066578063cfb559ce146101fe578063cff5013114610207578063e3be641214610210578063f1c3753a1461021957600080fd5b8063a76135c1146101af578063aa14e711146101c2578063b5620100146101e2578063bb80f32b146101eb57600080fd5b806374b7ee6d116100d357806374b7ee6d1461015657806385bb7f1f1461017657806388ac6d01146101895780638da5cb5b1461019c57600080fd5b8063306b9bb9146100fa578063332b7c661461010f57806356a316881461012b575b600080fd5b61010d610108366004610683565b61022c565b005b61011860035481565b6040519081526020015b60405180910390f35b60025461013e906001600160a01b031681565b6040516001600160a01b039091168152602001610122565b610118610164366004610683565b60096020526000908152604090205481565b60015461013e906001600160a01b031681565b61010d61019736600461069e565b61026a565b60005461013e906001600160a01b031681565b61010d6101bd3660046106d1565b6102cb565b6101186101d0366004610683565b60086020526000908152604090205481565b61011860045481565b61010d6101f9366004610703565b61037a565b61011860075481565b61011860065481565b61011860055481565b610118610227366004610683565b6103c0565b6001600160a01b0381166000908152600860205260408120549003610267576001600160a01b03811660009081526008602052604090204290555b50565b6000546001600160a01b0316331461029d5760405162461bcd60e51b81526004016102949061072d565b60405180910390fd5b600180546001600160a01b039384166001600160a01b03199182161790915560028054929093169116179055565b6000546001600160a01b031633146102f55760405162461bcd60e51b81526004016102949061072d565b6007546127109082846103088789610766565b6103129190610766565b61031c9190610766565b6103269190610766565b11156103665760405162461bcd60e51b815260206004820152600f60248201526e496e76616c6964207765696768747360881b6044820152606401610294565b600393909355600491909155600555600655565b6000546001600160a01b031633146103a45760405162461bcd60e51b81526004016102949061072d565b6001600160a01b03909116600090815260096020526040902055565b60075460009061012c90612710906103da90610226610779565b6103e49190610790565b6103ee9082610766565b6001549091506001600160a01b03161561049657600154604051634e44d07160e11b81526001600160a01b03858116600483015290911690639c89a0e290602401602060405180830381865afa925050508015610468575060408051601f3d908101601f19168201909252610465918101906107b2565b60015b15610496576127106003548261047e9190610779565b6104889190610790565b6104929083610766565b9150505b6002546001600160a01b03161561055857600254604051636d048fa560e01b81526001600160a01b03858116600483015290911690636d048fa5906024016040805180830381865afa92505050801561050c575060408051601f3d908101601f19168201909252610509918101906107cb565b60015b1561055857600061052b610523620f424085610790565b61271061064d565b90506127106004548261053e9190610779565b6105489190610790565b6105529085610766565b93505050505b6001600160a01b03831660009081526009602052604081205490610580610523606484610790565b9050612710600554826105939190610779565b61059d9190610790565b6105a79084610766565b6001600160a01b03861660009081526008602052604090205490935015610638576001600160a01b03851660009081526008602052604081205462015180906105f090426107ef565b6105fa9190610790565b9050600061060c61052383600a610779565b90506127106006548261061f9190610779565b6106299190610790565b6106339086610766565b945050505b6106448361035261064d565b95945050505050565b600081831061065c578161065e565b825b90505b92915050565b80356001600160a01b038116811461067e57600080fd5b919050565b60006020828403121561069557600080fd5b61065e82610667565b600080604083850312156106b157600080fd5b6106ba83610667565b91506106c860208401610667565b90509250929050565b600080600080608085870312156106e757600080fd5b5050823594602084013594506040840135936060013592509050565b6000806040838503121561071657600080fd5b61071f83610667565b946020939093013593505050565b6020808252600990820152682737ba1037bbb732b960b91b604082015260600190565b634e487b7160e01b600052601160045260246000fd5b8082018082111561066157610661610750565b808202811582820484141761066157610661610750565b6000826107ad57634e487b7160e01b600052601260045260246000fd5b500490565b6000602082840312156107c457600080fd5b5051919050565b600080604083850312156107de57600080fd5b505080516020909101519092909150565b818103818111156106615761066161075056fea264697066735822122055230815361935a44078da50d377d0dbe05312e9cfbdad5c5294a71736d5443064736f6c63430008130033","opcodes":"PUSH1 0x80 PUSH1 0x40 MSTORE PUSH2 0x9C4 PUSH1 0x3 SSTORE PUSH2 0x7D0 PUSH1 0x4 SSTORE PUSH2 0x5DC PUSH1 0x5 SSTORE PUSH2 0x1F4 PUSH1 0x6 SSTORE PUSH2 0xFA0 PUSH1 0x7 SSTORE CALLVALUE DUP1 ISZERO PUSH2 0x2E JUMPI PUSH1 0x0 DUP1 REVERT JUMPDEST POP PUSH1 0x0 DUP1 SLOAD PUSH1 0x1 PUSH1 0x1 PUSH1 0xA0 SHL SUB NOT AND CALLER OR SWAP1 SSTORE PUSH2 0x838 DUP1 PUSH2 0x50 PUSH1 0x0 CODECOPY PUSH1 0x0 RETURN INVALID PUSH1 0x80 PUSH1 0x40 MSTORE CALLVALUE DUP1 ISZERO PUSH2 0x10 JUMPI PUSH1 0x0 DUP1 REVERT JUMPDEST POP PUSH1 0x4 CALLDATASIZE LT PUSH2 0xF5 JUMPI PUSH1 0x0 CALLDATALOAD PUSH1 0xE0 SHR DUP1 PUSH4 0xA76135C1 GT PUSH2 0x97 JUMPI DUP1 PUSH4 0xCFB559CE GT PUSH2 0x66 JUMPI DUP1 PUSH4 0xCFB559CE EQ PUSH2 0x1FE JUMPI DUP1 PUSH4 0xCFF50131 EQ PUSH2 0x207 JUMPI DUP1 PUSH4 0xE3BE6412 EQ PUSH2 0x210 JUMPI DUP1 PUSH4 0xF1C3753A EQ PUSH2 0x219 JUMPI PUSH1 0x0 DUP1 REVERT JUMPDEST DUP1 PUSH4 0xA76135C1 EQ PUSH2 0x1AF JUMPI DUP1 PUSH4 0xAA14E711 EQ PUSH2 0x1C2 JUMPI DUP1 PUSH4 0xB5620100 EQ PUSH2 0x1E2 JUMPI DUP1 PUSH4 0xBB80F32B EQ PUSH2 0x1EB JUMPI PUSH1 0x0 DUP1 REVERT JUMPDEST DUP1 PUSH4 0x74B7EE6D GT PUSH2 0xD3 JUMPI DUP1 PUSH4 0x74B7EE6D EQ PUSH2 0x156 JUMPI DUP1 PUSH4 0x85BB7F1F EQ PUSH2 0x176 JUMPI DUP1 PUSH4 0x88AC6D01 EQ PUSH2 0x189 JUMPI DUP1 PUSH4 0x8DA5CB5B EQ PUSH2 0x19C JUMPI PUSH1 0x0 DUP1 REVERT JUMPDEST DUP1 PUSH4 0x306B9BB9 EQ PUSH2 0xFA JUMPI DUP1 PUSH4 0x332B7C66 EQ PUSH2 0x10F JUMPI DUP1 PUSH4 0x56A31688 EQ PUSH2 0x12B JUMPI JUMPDEST PUSH1 0x0 DUP1 REVERT JUMPDEST PUSH2 0x10D PUSH2 0x108 CALLDATASIZE PUSH1 0x4 PUSH2 0x683 JUMP JUMPDEST PUSH2 0x22C JUMP JUMPDEST STOP JUMPDEST PUSH2 0x118 PUSH1 0x3 SLOAD DUP2 JUMP JUMPDEST PUSH1 0x40 MLOAD SWAP1 DUP2 MSTORE PUSH1 0x20 ADD JUMPDEST PUSH1 0x40 MLOAD DUP1 SWAP2 SUB SWAP1 RETURN JUMPDEST PUSH1 0x2 SLOAD PUSH2 0x13E SWAP1 PUSH1 0x1 PUSH1 0x1 PUSH1 0xA0 SHL SUB AND DUP2 JUMP JUMPDEST PUSH1 0x40 MLOAD PUSH1 0x1 PUSH1 0x1 PUSH1 0xA0 SHL SUB SWAP1 SWAP2 AND DUP2 MSTORE PUSH1 0x20 ADD PUSH2 0x122 JUMP JUMPDEST PUSH2 0x118 PUSH2 0x164 CALLDATASIZE PUSH1 0x4 PUSH2 0x683 JUMP JUMPDEST PUSH1 0x9 PUSH1 0x20 MSTORE PUSH1 0x0 SWAP1 DUP2 MSTORE PUSH1 0x40 SWAP1 KECCAK256 SLOAD DUP2 JUMP JUMPDEST PUSH1 0x1 SLOAD PUSH2 0x13E SWAP1 PUSH1 0x1 PUSH1 0x1 PUSH1 0xA0 SHL SUB AND DUP2 JUMP JUMPDEST PUSH2 0x10D PUSH2 0x197 CALLDATASIZE PUSH1 0x4 PUSH2 0x69E JUMP JUMPDEST PUSH2 0x26A JUMP JUMPDEST PUSH1 0x0 SLOAD PUSH2 0x13E SWAP1 PUSH1 0x1 PUSH1 0x1 PUSH1 0xA0 SHL SUB AND DUP2 JUMP JUMPDEST PUSH2 0x10D PUSH2 0x1BD CALLDATASIZE PUSH1 0x4 PUSH2 0x6D1 JUMP JUMPDEST PUSH2 0x2CB JUMP JUMPDEST PUSH2 0x118 PUSH2 0x1D0 CALLDATASIZE PUSH1 0x4 PUSH2 0x683 JUMP JUMPDEST PUSH1 0x8 PUSH1 0x20 MSTORE PUSH1 0x0 SWAP1 DUP2 MSTORE PUSH1 0x40 SWAP1 KECCAK256 SLOAD DUP2 JUMP JUMPDEST PUSH2 0x118 PUSH1 0x4 SLOAD DUP2 JUMP JUMPDEST PUSH2 0x10D PUSH2 0x1F9 CALLDATASIZE PUSH1 0x4 PUSH2 0x703 JUMP JUMPDEST PUSH2 0x37A JUMP JUMPDEST PUSH2 0x118 PUSH1 0x7 SLOAD DUP2 JUMP JUMPDEST PUSH2 0x118 PUSH1 0x6 SLOAD DUP2 JUMP JUMPDEST PUSH2 0x118 PUSH1 0x5 SLOAD DUP2 JUMP JUMPDEST PUSH2 0x118 PUSH2 0x227 CALLDATASIZE PUSH1 0x4 PUSH2 0x683 JUMP JUMPDEST PUSH2 0x3C0 JUMP JUMPDEST PUSH1 0x1 PUSH1 0x1 PUSH1 0xA0 SHL SUB DUP2 AND PUSH1 0x0 SWAP1 DUP2 MSTORE PUSH1 0x8 PUSH1 0x20 MSTORE PUSH1 0x40 DUP2 KECCAK256 SLOAD SWAP1 SUB PUSH2 0x267 JUMPI PUSH1 0x1 PUSH1 0x1 PUSH1 0xA0 SHL SUB DUP2 AND PUSH1 0x0 SWAP1 DUP2 MSTORE PUSH1 0x8 PUSH1 0x20 MSTORE PUSH1 0x40 SWAP1 KECCAK256 TIMESTAMP SWAP1 SSTORE JUMPDEST POP JUMP JUMPDEST PUSH1 0x0 SLOAD PUSH1 0x1 PUSH1 0x1 PUSH1 0xA0 SHL SUB AND CALLER EQ PUSH2 0x29D JUMPI PUSH1 0x40 MLOAD PUSH3 0x461BCD PUSH1 0xE5 SHL DUP2 MSTORE PUSH1 0x4 ADD PUSH2 0x294 SWAP1 PUSH2 0x72D JUMP JUMPDEST PUSH1 0x40 MLOAD DUP1 SWAP2 SUB SWAP1 REVERT JUMPDEST PUSH1 0x1 DUP1 SLOAD PUSH1 0x1 PUSH1 0x1 PUSH1 0xA0 SHL SUB SWAP4 DUP5 AND PUSH1 0x1 PUSH1 0x1 PUSH1 0xA0 SHL SUB NOT SWAP2 DUP3 AND OR SWAP1 SWAP2 SSTORE PUSH1 0x2 DUP1 SLOAD SWAP3 SWAP1 SWAP4 AND SWAP2 AND OR SWAP1 SSTORE JUMP JUMPDEST PUSH1 0x0 SLOAD PUSH1 0x1 PUSH1 0x1 PUSH1 0xA0 SHL SUB AND CALLER EQ PUSH2 0x2F5 JUMPI PUSH1 0x40 MLOAD PUSH3 0x461BCD PUSH1 0xE5 SHL DUP2 MSTORE PUSH1 0x4 ADD PUSH2 0x294 SWAP1 PUSH2 0x72D JUMP JUMPDEST PUSH1 0x7 SLOAD PUSH2 0x2710 SWAP1 DUP3 DUP5 PUSH2 0x308 DUP8 DUP10 PUSH2 0x766 JUMP JUMPDEST PUSH2 0x312 SWAP2 SWAP1 PUSH2 0x766 JUMP JUMPDEST PUSH2 0x31C SWAP2 SWAP1 PUSH2 0x766 JUMP JUMPDEST PUSH2 0x326 SWAP2 SWAP1 PUSH2 0x766 JUMP JUMPDEST GT ISZERO PUSH2 0x366 JUMPI PUSH1 0x40 MLOAD PUSH3 0x461BCD PUSH1 0xE5 SHL DUP2 MSTORE PUSH1 0x20 PUSH1 0x4 DUP3 ADD MSTORE PUSH1 0xF PUSH1 0x24 DUP3 ADD MSTORE PUSH15 0x496E76616C69642077656967687473 PUSH1 0x88 SHL PUSH1 0x44 DUP3 ADD MSTORE PUSH1 0x64 ADD PUSH2 0x294 JUMP JUMPDEST PUSH1 0x3 SWAP4 SWAP1 SWAP4 SSTORE PUSH1 0x4 SWAP2 SWAP1 SWAP2 SSTORE PUSH1 0x5 SSTORE PUSH1 0x6 SSTORE JUMP JUMPDEST PUSH1 0x0 SLOAD PUSH1 0x1 PUSH1 0x1 PUSH1 0xA0 SHL SUB AND CALLER EQ PUSH2 0x3A4 JUMPI PUSH1 0x40 MLOAD PUSH3 0x461BCD PUSH1 0xE5 SHL DUP2 MSTORE PUSH1 0x4 ADD PUSH2 0x294 SWAP1 PUSH2 0x72D JUMP JUMPDEST PUSH1 0x1 PUSH1 0x1 PUSH1 0xA0 SHL SUB SWAP1 SWAP2 AND PUSH1 0x0 SWAP1 DUP2 MSTORE PUSH1 0x9 PUSH1 0x20 MSTORE PUSH1 0x40 SWAP1 KECCAK256 SSTORE JUMP JUMPDEST PUSH1 0x7 SLOAD PUSH1 0x0 SWAP1 PUSH2 0x12C SWAP1 PUSH2 0x2710 SWAP1 PUSH2 0x3DA SWAP1 PUSH2 0x226 PUSH2 0x779 JUMP JUMPDEST PUSH2 0x3E4 SWAP2 SWAP1 PUSH2 0x790 JUMP JUMPDEST PUSH2 0x3EE SWAP1 DUP3 PUSH2 0x766 JUMP JUMPDEST PUSH1 0x1 SLOAD SWAP1 SWAP2 POP PUSH1 0x1 PUSH1 0x1 PUSH1 0xA0 SHL SUB AND ISZERO PUSH2 0x496 JUMPI PUSH1 0x1 SLOAD PUSH1 0x40 MLOAD PUSH4 0x4E44D071 PUSH1 0xE1 SHL DUP2 MSTORE PUSH1 0x1 PUSH1 0x1 PUSH1 0xA0 SHL SUB DUP6 DUP2 AND PUSH1 0x4 DUP4 ADD MSTORE SWAP1 SWAP2 AND SWAP1 PUSH4 0x9C89A0E2 SWAP1 PUSH1 0x24 ADD PUSH1 0x20 PUSH1 0x40 MLOAD DUP1 DUP4 SUB DUP2 DUP7 GAS STATICCALL SWAP3 POP POP POP DUP1 ISZERO PUSH2 0x468 JUMPI POP PUSH1 0x40 DUP1 MLOAD PUSH1 0x1F RETURNDATASIZE SWAP1 DUP2 ADD PUSH1 0x1F NOT AND DUP3 ADD SWAP1 SWAP3 MSTORE PUSH2 0x465 SWAP2 DUP2 ADD SWAP1 PUSH2 0x7B2 JUMP JUMPDEST PUSH1 0x1 JUMPDEST ISZERO PUSH2 0x496 JUMPI PUSH2 0x2710 PUSH1 0x3 SLOAD DUP3 PUSH2 0x47E SWAP2 SWAP1 PUSH2 0x779 JUMP JUMPDEST PUSH2 0x488 SWAP2 SWAP1 PUSH2 0x790 JUMP JUMPDEST PUSH2 0x492 SWAP1 DUP4 PUSH2 0x766 JUMP JUMPDEST SWAP2 POP POP JUMPDEST PUSH1 0x2 SLOAD PUSH1 0x1 PUSH1 0x1 PUSH1 0xA0 SHL SUB AND ISZERO PUSH2 0x558 JUMPI PUSH1 0x2 SLOAD PUSH1 0x40 MLOAD PUSH4 0x6D048FA5 PUSH1 0xE0 SHL DUP2 MSTORE PUSH1 0x1 PUSH1 0x1 PUSH1 0xA0 SHL SUB DUP6 DUP2 AND PUSH1 0x4 DUP4 ADD MSTORE SWAP1 SWAP2 AND SWAP1 PUSH4 0x6D048FA5 SWAP1 PUSH1 0x24 ADD PUSH1 0x40 DUP1 MLOAD DUP1 DUP4 SUB DUP2 DUP7 GAS STATICCALL SWAP3 POP POP POP DUP1 ISZERO PUSH2 0x50C JUMPI POP PUSH1 0x40 DUP1 MLOAD PUSH1 0x1F RETURNDATASIZE SWAP1 DUP2 ADD PUSH1 0x1F NOT AND DUP3 ADD SWAP1 SWAP3 MSTORE PUSH2 0x509 SWAP2 DUP2 ADD SWAP1 PUSH2 0x7CB JUMP JUMPDEST PUSH1 0x1 JUMPDEST ISZERO PUSH2 0x558 JUMPI PUSH1 0x0 PUSH2 0x52B PUSH2 0x523 PUSH3 0xF4240 DUP6 PUSH2 0x790 JUMP JUMPDEST PUSH2 0x2710 PUSH2 0x64D JUMP JUMPDEST SWAP1 POP PUSH2 0x2710 PUSH1 0x4 SLOAD DUP3 PUSH2 0x53E SWAP2 SWAP1 PUSH2 0x779 JUMP JUMPDEST PUSH2 0x548 SWAP2 SWAP1 PUSH2 0x790 JUMP JUMPDEST PUSH2 0x552 SWAP1 DUP6 PUSH2 0x766 JUMP JUMPDEST SWAP4 POP POP POP POP JUMPDEST PUSH1 0x1 PUSH1 0x1 PUSH1 0xA0 SHL SUB DUP4 AND PUSH1 0x0 SWAP1 DUP2 MSTORE PUSH1 0x9 PUSH1 0x20 MSTORE PUSH1 0x40 DUP2 KECCAK256 SLOAD SWAP1 PUSH2 0x580 PUSH2 0x523 PUSH1 0x64 DUP5 PUSH2 0x790 JUMP JUMPDEST SWAP1 POP PUSH2 0x2710 PUSH1 0x5 SLOAD DUP3 PUSH2 0x593 SWAP2 SWAP1 PUSH2 0x779 JUMP JUMPDEST PUSH2 0x59D SWAP2 SWAP1 PUSH2 0x790 JUMP JUMPDEST PUSH2 0x5A7 SWAP1 DUP5 PUSH2 0x766 JUMP JUMPDEST PUSH1 0x1 PUSH1 0x1 PUSH1 0xA0 SHL SUB DUP7 AND PUSH1 0x0 SWAP1 DUP2 MSTORE PUSH1 0x8 PUSH1 0x20 MSTORE PUSH1 0x40 SWAP1 KECCAK256 SLOAD SWAP1 SWAP4 POP ISZERO PUSH2 0x638 JUMPI PUSH1 0x1 PUSH1 0x1 PUSH1 0xA0 SHL SUB DUP6 AND PUSH1 0x0 SWAP1 DUP2 MSTORE PUSH1 0x8 PUSH1 0x20 MSTORE PUSH1 0x40 DUP2 KECCAK256 SLOAD PUSH3 0x15180 SWAP1 PUSH2 0x5F0 SWAP1 TIMESTAMP PUSH2 0x7EF JUMP JUMPDEST PUSH2 0x5FA SWAP2 SWAP1 PUSH2 0x790 JUMP JUMPDEST SWAP1 POP PUSH1 0x0 PUSH2 0x60C PUSH2 0x523 DUP4 PUSH1 0xA PUSH2 0x779 JUMP JUMPDEST SWAP1 POP PUSH2 0x2710 PUSH1 0x6 SLOAD DUP3 PUSH2 0x61F SWAP2 SWAP1 PUSH2 0x779 JUMP JUMPDEST PUSH2 0x629 SWAP2 SWAP1 PUSH2 0x790 JUMP JUMPDEST PUSH2 0x633 SWAP1 DUP7 PUSH2 0x766 JUMP JUMPDEST SWAP5 POP POP POP JUMPDEST PUSH2 0x644 DUP4 PUSH2 0x352 PUSH2 0x64D JUMP JUMPDEST SWAP6 SWAP5 POP POP POP POP POP JUMP JUMPDEST PUSH1 0x0 DUP2 DUP4 LT PUSH2 0x65C JUMPI DUP2 PUSH2 0x65E JUMP JUMPDEST DUP3 JUMPDEST SWAP1 POP JUMPDEST SWAP3 SWAP2 POP POP JUMP JUMPDEST DUP1 CALLDATALOAD PUSH1 0x1 PUSH1 0x1 PUSH1 0xA0 SHL SUB DUP2 AND DUP2 EQ PUSH2 0x67E JUMPI PUSH1 0x0 DUP1 REVERT JUMPDEST SWAP2 SWAP1 POP JUMP JUMPDEST PUSH1 0x0 PUSH1 0x20 DUP3 DUP5 SUB SLT ISZERO PUSH2 0x695 JUMPI PUSH1 0x0 DUP1 REVERT JUMPDEST PUSH2 0x65E DUP3 PUSH2 0x667 JUMP JUMPDEST PUSH1 0x0 DUP1 PUSH1 0x40 DUP4 DUP6 SUB SLT ISZERO PUSH2 0x6B1 JUMPI PUSH1 0x0 DUP1 REVERT JUMPDEST PUSH2 0x6BA DUP4 PUSH2 0x667 JUMP JUMPDEST SWAP2 POP PUSH2 0x6C8 PUSH1 0x20 DUP5 ADD PUSH2 0x667 JUMP JUMPDEST SWAP1 POP SWAP3 POP SWAP3 SWAP1 POP JUMP JUMPDEST PUSH1 0x0 DUP1 PUSH1 0x0 DUP1 PUSH1 0x80 DUP6 DUP8 SUB SLT ISZERO PUSH2 0x6E7 JUMPI PUSH1 0x0 DUP1 REVERT JUMPDEST POP POP DUP3 CALLDATALOAD SWAP5 PUSH1 0x20 DUP5 ADD CALLDATALOAD SWAP5 POP PUSH1 0x40 DUP5 ADD CALLDATALOAD SWAP4 PUSH1 0x60 ADD CALLDATALOAD SWAP3 POP SWAP1 POP JUMP JUMPDEST PUSH1 0x0 DUP1 PUSH1 0x40 DUP4 DUP6 SUB SLT ISZERO PUSH2 0x716 JUMPI PUSH1 0x0 DUP1 REVERT JUMPDEST PUSH2 0x71F DUP4 PUSH2 0x667 JUMP JUMPDEST SWAP5 PUSH1 0x20 SWAP4 SWAP1 SWAP4 ADD CALLDATALOAD SWAP4 POP POP POP JUMP JUMPDEST PUSH1 0x20 DUP1 DUP3 MSTORE PUSH1 0x9 SWAP1 DUP3 ADD MSTORE PUSH9 0x2737BA1037BBB732B9 PUSH1 0xB9 SHL PUSH1 0x40 DUP3 ADD MSTORE PUSH1 0x60 ADD SWAP1 JUMP JUMPDEST PUSH4 0x4E487B71 PUSH1 0xE0 SHL PUSH1 0x0 MSTORE PUSH1 0x11 PUSH1 0x4 MSTORE PUSH1 0x24 PUSH1 0x0 REVERT JUMPDEST DUP1 DUP3 ADD DUP1 DUP3 GT ISZERO PUSH2 0x661 JUMPI PUSH2 0x661 PUSH2 0x750 JUMP JUMPDEST DUP1 DUP3 MUL DUP2 ISZERO DUP3 DUP3 DIV DUP5 EQ OR PUSH2 0x661 JUMPI PUSH2 0x661 PUSH2 0x750 JUMP JUMPDEST PUSH1 0x0 DUP3 PUSH2 0x7AD JUMPI PUSH4 0x4E487B71 PUSH1 0xE0 SHL PUSH1 0x0 MSTORE PUSH1 0x12 PUSH1 0x4 MSTORE PUSH1 0x24 PUSH1 0x0 REVERT JUMPDEST POP DIV SWAP1 JUMP JUMPDEST PUSH1 0x0 PUSH1 0x20 DUP3 DUP5 SUB SLT ISZERO PUSH2 0x7C4 JUMPI PUSH1 0x0 DUP1 REVERT JUMPDEST POP MLOAD SWAP2 SWAP1 POP JUMP JUMPDEST PUSH1 0x0 DUP1 PUSH1 0x40 DUP4 DUP6 SUB SLT ISZERO PUSH2 0x7DE JUMPI PUSH1 0x0 DUP1 REVERT JUMPDEST POP POP DUP1 MLOAD PUSH1 0x20 SWAP1 SWAP2 ADD MLOAD SWAP1 SWAP3 SWAP1 SWAP2 POP JUMP JUMPDEST DUP2 DUP2 SUB DUP2 DUP2 GT ISZERO PUSH2 0x661 JUMPI PUSH2 0x661 PUSH2 0x750 JUMP INVALID LOG2 PUSH5 0x6970667358 0x22 SLT KECCAK256 SSTORE 0x23 ADDMOD ISZERO CALLDATASIZE NOT CALLDATALOAD LOG4 BLOCKHASH PUSH25 0xDA50D377D0DBE05312E9CFBDAD5C5294A71736D5443064736F PUSH13 0x63430008130033000000000000 "},"methodIdentifiers":{"accountAgeWeight()":"cff50131","accountCreatedAt(address)":"aa14e711","baseScore()":"cfb559ce","calculateCreditScore(address)":"f1c3753a","clawhubSales(address)":"74b7ee6d","clawhubWeight()":"e3be6412","openworkContract()":"85bb7f1f","openworkWeight()":"332b7c66","owner()":"8da5cb5b","registerAgent(address)":"306b9bb9","setDataSources(address,address)":"88ac6d01","setWeights(uint256,uint256,uint256,uint256)":"a76135c1","simmerContract()":"56a31688","simmerWeight()":"b5620100","updateClawhubSales(address,uint256)":"bb80f32b"}}}}}