{
  "_format": "hh-sol-artifact-1",
  "contractName": "AgentCreditNetwork",
  "sourceName": "contracts/AgentCreditNetwork.sol",
  "abi": [
    {
      "inputs": [
        {
          "internalType": "address",
          "name": "_feeRecipient",
          "type": "address"
        }
      ],
      "stateMutability": "nonpayable",
      "type": "constructor"
    },
    {
      "anonymous": false,
      "inputs": [
        {
          "indexed": true,
          "internalType": "address",
          "name": "agent",
          "type": "address"
        },
        {
          "indexed": false,
          "internalType": "uint256",
          "name": "newScore",
          "type": "uint256"
        },
        {
          "indexed": false,
          "internalType": "uint256",
          "name": "tier",
          "type": "uint256"
        }
      ],
      "name": "CreditScoreUpdated",
      "type": "event"
    },
    {
      "anonymous": false,
      "inputs": [
        {
          "indexed": true,
          "internalType": "uint256",
          "name": "loanId",
          "type": "uint256"
        },
        {
          "indexed": true,
          "internalType": "address",
          "name": "lender",
          "type": "address"
        },
        {
          "indexed": false,
          "internalType": "uint256",
          "name": "amount",
          "type": "uint256"
        }
      ],
      "name": "LoanFunded",
      "type": "event"
    },
    {
      "anonymous": false,
      "inputs": [
        {
          "indexed": true,
          "internalType": "uint256",
          "name": "loanId",
          "type": "uint256"
        },
        {
          "indexed": false,
          "internalType": "uint256",
          "name": "amount",
          "type": "uint256"
        },
        {
          "indexed": false,
          "internalType": "uint256",
          "name": "interest",
          "type": "uint256"
        }
      ],
      "name": "LoanRepaid",
      "type": "event"
    },
    {
      "anonymous": false,
      "inputs": [
        {
          "indexed": true,
          "internalType": "uint256",
          "name": "loanId",
          "type": "uint256"
        },
        {
          "indexed": true,
          "internalType": "address",
          "name": "borrower",
          "type": "address"
        },
        {
          "indexed": false,
          "internalType": "uint256",
          "name": "amount",
          "type": "uint256"
        },
        {
          "indexed": false,
          "internalType": "uint256",
          "name": "interestRate",
          "type": "uint256"
        }
      ],
      "name": "LoanRequested",
      "type": "event"
    },
    {
      "inputs": [
        {
          "internalType": "address",
          "name": "",
          "type": "address"
        },
        {
          "internalType": "uint256",
          "name": "",
          "type": "uint256"
        }
      ],
      "name": "borrowerLoans",
      "outputs": [
        {
          "internalType": "uint256",
          "name": "",
          "type": "uint256"
        }
      ],
      "stateMutability": "view",
      "type": "function"
    },
    {
      "inputs": [
        {
          "internalType": "uint256",
          "name": "_loanId",
          "type": "uint256"
        }
      ],
      "name": "calculateInterest",
      "outputs": [
        {
          "internalType": "uint256",
          "name": "",
          "type": "uint256"
        }
      ],
      "stateMutability": "view",
      "type": "function"
    },
    {
      "inputs": [
        {
          "internalType": "address",
          "name": "",
          "type": "address"
        }
      ],
      "name": "creditScores",
      "outputs": [
        {
          "internalType": "address",
          "name": "agent",
          "type": "address"
        },
        {
          "internalType": "uint256",
          "name": "score",
          "type": "uint256"
        },
        {
          "internalType": "uint256",
          "name": "tier",
          "type": "uint256"
        },
        {
          "internalType": "uint256",
          "name": "totalLoans",
          "type": "uint256"
        },
        {
          "internalType": "uint256",
          "name": "repaidLoans",
          "type": "uint256"
        },
        {
          "internalType": "uint256",
          "name": "defaultedLoans",
          "type": "uint256"
        }
      ],
      "stateMutability": "view",
      "type": "function"
    },
    {
      "inputs": [
        {
          "internalType": "uint256",
          "name": "_loanId",
          "type": "uint256"
        }
      ],
      "name": "fundLoan",
      "outputs": [],
      "stateMutability": "nonpayable",
      "type": "function"
    },
    {
      "inputs": [
        {
          "internalType": "address",
          "name": "_borrower",
          "type": "address"
        }
      ],
      "name": "getBorrowerLoans",
      "outputs": [
        {
          "internalType": "uint256[]",
          "name": "",
          "type": "uint256[]"
        }
      ],
      "stateMutability": "view",
      "type": "function"
    },
    {
      "inputs": [
        {
          "internalType": "address",
          "name": "_agent",
          "type": "address"
        }
      ],
      "name": "getCreditScore",
      "outputs": [
        {
          "components": [
            {
              "internalType": "address",
              "name": "agent",
              "type": "address"
            },
            {
              "internalType": "uint256",
              "name": "score",
              "type": "uint256"
            },
            {
              "internalType": "uint256",
              "name": "tier",
              "type": "uint256"
            },
            {
              "internalType": "uint256",
              "name": "totalLoans",
              "type": "uint256"
            },
            {
              "internalType": "uint256",
              "name": "repaidLoans",
              "type": "uint256"
            },
            {
              "internalType": "uint256",
              "name": "defaultedLoans",
              "type": "uint256"
            }
          ],
          "internalType": "struct AgentCreditNetwork.CreditScore",
          "name": "",
          "type": "tuple"
        }
      ],
      "stateMutability": "view",
      "type": "function"
    },
    {
      "inputs": [
        {
          "internalType": "address",
          "name": "_lender",
          "type": "address"
        }
      ],
      "name": "getLenderLoans",
      "outputs": [
        {
          "internalType": "uint256[]",
          "name": "",
          "type": "uint256[]"
        }
      ],
      "stateMutability": "view",
      "type": "function"
    },
    {
      "inputs": [
        {
          "internalType": "uint256",
          "name": "_loanId",
          "type": "uint256"
        }
      ],
      "name": "getLoan",
      "outputs": [
        {
          "components": [
            {
              "internalType": "uint256",
              "name": "id",
              "type": "uint256"
            },
            {
              "internalType": "address",
              "name": "borrower",
              "type": "address"
            },
            {
              "internalType": "uint256",
              "name": "amount",
              "type": "uint256"
            },
            {
              "internalType": "uint256",
              "name": "interestRate",
              "type": "uint256"
            },
            {
              "internalType": "uint256",
              "name": "duration",
              "type": "uint256"
            },
            {
              "internalType": "uint256",
              "name": "createdAt",
              "type": "uint256"
            },
            {
              "internalType": "uint256",
              "name": "fundedAt",
              "type": "uint256"
            },
            {
              "internalType": "uint256",
              "name": "repaidAt",
              "type": "uint256"
            },
            {
              "internalType": "address",
              "name": "lender",
              "type": "address"
            },
            {
              "internalType": "enum AgentCreditNetwork.LoanStatus",
              "name": "status",
              "type": "uint8"
            },
            {
              "internalType": "string",
              "name": "purpose",
              "type": "string"
            }
          ],
          "internalType": "struct AgentCreditNetwork.Loan",
          "name": "",
          "type": "tuple"
        }
      ],
      "stateMutability": "view",
      "type": "function"
    },
    {
      "inputs": [
        {
          "internalType": "address",
          "name": "_agent",
          "type": "address"
        }
      ],
      "name": "getMaxLoanAmount",
      "outputs": [
        {
          "internalType": "uint256",
          "name": "",
          "type": "uint256"
        }
      ],
      "stateMutability": "view",
      "type": "function"
    },
    {
      "inputs": [
        {
          "internalType": "address",
          "name": "_agent",
          "type": "address"
        },
        {
          "internalType": "uint256",
          "name": "_baseScore",
          "type": "uint256"
        }
      ],
      "name": "initializeCreditScore",
      "outputs": [],
      "stateMutability": "nonpayable",
      "type": "function"
    },
    {
      "inputs": [
        {
          "internalType": "address",
          "name": "",
          "type": "address"
        },
        {
          "internalType": "uint256",
          "name": "",
          "type": "uint256"
        }
      ],
      "name": "lenderLoans",
      "outputs": [
        {
          "internalType": "uint256",
          "name": "",
          "type": "uint256"
        }
      ],
      "stateMutability": "view",
      "type": "function"
    },
    {
      "inputs": [],
      "name": "loanCounter",
      "outputs": [
        {
          "internalType": "uint256",
          "name": "",
          "type": "uint256"
        }
      ],
      "stateMutability": "view",
      "type": "function"
    },
    {
      "inputs": [
        {
          "internalType": "uint256",
          "name": "",
          "type": "uint256"
        }
      ],
      "name": "loans",
      "outputs": [
        {
          "internalType": "uint256",
          "name": "id",
          "type": "uint256"
        },
        {
          "internalType": "address",
          "name": "borrower",
          "type": "address"
        },
        {
          "internalType": "uint256",
          "name": "amount",
          "type": "uint256"
        },
        {
          "internalType": "uint256",
          "name": "interestRate",
          "type": "uint256"
        },
        {
          "internalType": "uint256",
          "name": "duration",
          "type": "uint256"
        },
        {
          "internalType": "uint256",
          "name": "createdAt",
          "type": "uint256"
        },
        {
          "internalType": "uint256",
          "name": "fundedAt",
          "type": "uint256"
        },
        {
          "internalType": "uint256",
          "name": "repaidAt",
          "type": "uint256"
        },
        {
          "internalType": "address",
          "name": "lender",
          "type": "address"
        },
        {
          "internalType": "enum AgentCreditNetwork.LoanStatus",
          "name": "status",
          "type": "uint8"
        },
        {
          "internalType": "string",
          "name": "purpose",
          "type": "string"
        }
      ],
      "stateMutability": "view",
      "type": "function"
    },
    {
      "inputs": [
        {
          "internalType": "uint256",
          "name": "_loanId",
          "type": "uint256"
        }
      ],
      "name": "markDefaulted",
      "outputs": [],
      "stateMutability": "nonpayable",
      "type": "function"
    },
    {
      "inputs": [],
      "name": "owner",
      "outputs": [
        {
          "internalType": "address",
          "name": "",
          "type": "address"
        }
      ],
      "stateMutability": "view",
      "type": "function"
    },
    {
      "inputs": [],
      "name": "platformFee",
      "outputs": [
        {
          "internalType": "uint256",
          "name": "",
          "type": "uint256"
        }
      ],
      "stateMutability": "view",
      "type": "function"
    },
    {
      "inputs": [
        {
          "internalType": "uint256",
          "name": "_loanId",
          "type": "uint256"
        }
      ],
      "name": "repayLoan",
      "outputs": [],
      "stateMutability": "payable",
      "type": "function"
    },
    {
      "inputs": [
        {
          "internalType": "uint256",
          "name": "_amount",
          "type": "uint256"
        },
        {
          "internalType": "uint256",
          "name": "_interestRate",
          "type": "uint256"
        },
        {
          "internalType": "uint256",
          "name": "_duration",
          "type": "uint256"
        },
        {
          "internalType": "string",
          "name": "_purpose",
          "type": "string"
        }
      ],
      "name": "requestLoan",
      "outputs": [
        {
          "internalType": "uint256",
          "name": "",
          "type": "uint256"
        }
      ],
      "stateMutability": "nonpayable",
      "type": "function"
    },
    {
      "inputs": [
        {
          "internalType": "uint256",
          "name": "_newFee",
          "type": "uint256"
        }
      ],
      "name": "setPlatformFee",
      "outputs": [],
      "stateMutability": "nonpayable",
      "type": "function"
    },
    {
      "inputs": [
        {
          "internalType": "address",
          "name": "",
          "type": "address"
        }
      ],
      "name": "verifiedAgents",
      "outputs": [
        {
          "internalType": "bool",
          "name": "",
          "type": "bool"
        }
      ],
      "stateMutability": "view",
      "type": "function"
    },
    {
      "inputs": [],
      "name": "withdrawFees",
      "outputs": [],
      "stateMutability": "nonpayable",
      "type": "function"
    }
  ],
  "bytecode": "0x608060405261012c60015534801561001657600080fd5b50604051611dc5380380611dc58339810160408190526100359161005d565b600080546001600160a01b0319166001600160a01b039290921691909117815560025561008d565b60006020828403121561006f57600080fd5b81516001600160a01b038116811461008657600080fd5b9392505050565b611d298061009c6000396000f3fe60806040526004361061012a5760003560e01c806384733294116100ab578063ae82455f1161006f578063ae82455f1461038e578063d3dd2bdf146103ce578063e1ec3c681461043e578063e3ed190214610475578063eee8b7ff14610495578063eeeb0c17146104c257600080fd5b806384733294146102e35780638da5cb5b14610303578063a57475e01461033b578063ab7b1c891461035b578063ad73f38e1461036e57600080fd5b8063504006ca116100f2578063504006ca146101c55780635527c728146101f2578063732164501461021257806380bb727314610232578063846b909a146102c357600080fd5b806312e8e2c31461012f57806326232a2e1461015157806334d9289e1461017a5780633cdb72f114610190578063476343ee146101b0575b600080fd5b34801561013b57600080fd5b5061014f61014a3660046117a6565b6104e2565b005b34801561015d57600080fd5b5061016760015481565b6040519081526020015b60405180910390f35b34801561018657600080fd5b5061016760025481565b34801561019c57600080fd5b506101676101ab3660046117db565b610555565b3480156101bc57600080fd5b5061014f610586565b3480156101d157600080fd5b506101e56101e03660046117a6565b6105ed565b6040516101719190611883565b3480156101fe57600080fd5b5061014f61020d3660046117db565b610745565b34801561021e57600080fd5b5061014f61022d3660046117a6565b6108a8565b34801561023e57600080fd5b5061028c61024d36600461193e565b60046020819052600091825260409091208054600182015460028301546003840154948401546005909401546001600160a01b03909316949193909286565b604080516001600160a01b0390971687526020870195909552938501929092526060840152608083015260a082015260c001610171565b3480156102cf57600080fd5b5061014f6102de3660046117a6565b6109b6565b3480156102ef57600080fd5b506101676102fe36600461196f565b610b96565b34801561030f57600080fd5b50600054610323906001600160a01b031681565b6040516001600160a01b039091168152602001610171565b34801561034757600080fd5b506101676103563660046117a6565b610ec2565b61014f6103693660046117a6565b6110a7565b34801561037a57600080fd5b5061016761038936600461193e565b61127c565b34801561039a57600080fd5b506103be6103a936600461193e565b60076020526000908152604090205460ff1681565b6040519015158152602001610171565b3480156103da57600080fd5b506103ee6103e936600461193e565b61132f565b604051610171919081516001600160a01b031681526020808301519082015260408083015190820152606080830151908201526080808301519082015260a0918201519181019190915260c00190565b34801561044a57600080fd5b5061045e6104593660046117a6565b6113d4565b6040516101719b9a99989796959493929190611a3d565b34801561048157600080fd5b506101676104903660046117db565b6114cc565b3480156104a157600080fd5b506104b56104b036600461193e565b6114e8565b6040516101719190611ab5565b3480156104ce57600080fd5b506104b56104dd36600461193e565b611554565b6000546001600160a01b031633146105155760405162461bcd60e51b815260040161050c90611af9565b60405180910390fd5b6101f48111156105505760405162461bcd60e51b81526020600482015260066024820152654d617820352560d01b604482015260640161050c565b600155565b6006602052816000526040600020818154811061057157600080fd5b90600052602060002001600091509150505481565b6000546001600160a01b031633146105b05760405162461bcd60e51b815260040161050c90611af9565b600080546040516001600160a01b03909116914780156108fc02929091818181858888f193505050501580156105ea573d6000803e3d6000fd5b50565b6105f5611729565b6000828152600360208181526040928390208351610160810185528154815260018201546001600160a01b03908116938201939093526002820154948101949094529182015460608401526004808301546080850152600583015460a0850152600683015460c0850152600783015460e08501526008830154918216610100850152610120840191600160a01b900460ff169081111561069757610697611805565b60048111156106a8576106a8611805565b81526020016009820180546106bc90611b1c565b80601f01602080910402602001604051908101604052809291908181526020018280546106e890611b1c565b80156107355780601f1061070a57610100808354040283529160200191610735565b820191906000526020600020905b81548152906001019060200180831161071857829003601f168201915b5050505050815250509050919050565b6000546001600160a01b0316331461076f5760405162461bcd60e51b815260040161050c90611af9565b61012c811015801561078357506103528111155b6107bf5760405162461bcd60e51b815260206004820152600d60248201526c496e76616c69642073636f726560981b604482015260640161050c565b60006107ca826115be565b6040805160c0810182526001600160a01b0386811680835260208084018881528486018781526000606087018181526080880182815260a0890183815287845260048088528b85209a518b546001600160a01b0319169a16999099178a5594516001808b0191909155935160028a015590516003890155519587019590955590516005909501949094556007815291849020805460ff19169093179092558251868152908101849052929350917f4f43648f37bc26ee5bc39c60c1c1e2481a9fb9feb9f86419c91b4645585ff3bc91015b60405180910390a2505050565b600081815260036020526040902060016008820154600160a01b900460ff1660048111156108d8576108d8611805565b146109125760405162461bcd60e51b815260206004820152600a602482015269139bdd08199d5b99195960b21b604482015260640161050c565b6004810154610922906007611b6c565b61092f9062015180611b7f565b816006015461093e9190611b6c565b42116109845760405162461bcd60e51b815260206004820152601560248201527423b930b1b2903832b934b7b2103737ba1037bb32b960591b604482015260640161050c565b60088101805460ff60a01b1916600360a01b17905560018101546109b2906001600160a01b031660006115fb565b5050565b3360009081526007602052604090205460ff16610a0a5760405162461bcd60e51b81526020600482015260126024820152711059d95b9d081b9bdd081d995c9a599a595960721b604482015260640161050c565b6000818152600360205260408120906008820154600160a01b900460ff166004811115610a3957610a39611805565b14610a765760405162461bcd60e51b815260206004820152600d60248201526c4e6f7420617661696c61626c6560981b604482015260640161050c565b6001810154336001600160a01b0390911603610aca5760405162461bcd60e51b815260206004820152601360248201527221b0b713ba10333ab7321037bbb7103637b0b760691b604482015260640161050c565b60006127106001548360020154610ae19190611b7f565b610aeb9190611b96565b90506000818360020154610aff9190611bb8565b600884018054426006808801919091553360ff60a01b1981166001600160a81b031990931692909217600160a01b17909255600081815260209283526040808220805460018101825590835291849020909101889055600287015490519081529293509186917fbd7ef6c6281278f6c8ac4ae9ef2f205b52425813c288dd47c377cb6b59c5076e910160405180910390a350505050565b3360009081526007602052604081205460ff16610bea5760405162461bcd60e51b81526020600482015260126024820152711059d95b9d081b9bdd081d995c9a599a595960721b604482015260640161050c565b620f4240851015610c2b5760405162461bcd60e51b815260206004820152600b60248201526a4d696e206c6f616e20243160a81b604482015260640161050c565b6402540be400851115610c705760405162461bcd60e51b815260206004820152600d60248201526c4d6178206c6f616e202431304b60981b604482015260640161050c565b6101f48410158015610c8457506109c48411155b610cbd5760405162461bcd60e51b815260206004820152600a6024820152695261746520352d32352560b01b604482015260640161050c565b60078310158015610ccf575060b48311155b610d115760405162461bcd60e51b81526020600482015260136024820152724475726174696f6e20372d313830206461797360681b604482015260640161050c565b60028054906000610d2183611bcb565b9091555050600254604080516101608101825282815233602082015290810187905260608101869052608081018590524260a0820152600060c0820181905260e082018190526101008201819052610120820190815260209081018590526000838152600380835260409182902084518155928401516001840180546001600160a01b03199081166001600160a01b0393841617909155928501516002850155606085015191840191909155608084015160048085019190915560a0850151600585015560c0850151600685015560e08501516007850155610100850151600885018054948516919093169081178355610120860151936001600160a81b0319161790600160a01b908490811115610e3b57610e3b611805565b02179055506101408201516009820190610e559082611c33565b505033600081815260056020908152604080832080546001810182559084529282902090920185905581518a815290810189905291925083917f68595dbe887ae7f496f2c88735019a8918919a1decfdee6bdb460480ab87decb910160405180910390a395945050505050565b60008181526003602081815260408084208151610160810183528154815260018201546001600160a01b03908116948201949094526002820154928101929092529283015460608201526004808401546080830152600584015460a0830152600684015460c0830152600784015460e0830152600884015492831661010083015284939192610120840191600160a01b90910460ff1690811115610f6857610f68611805565b6004811115610f7957610f79611805565b8152602001600982018054610f8d90611b1c565b80601f0160208091040260200160405190810160405280929190818152602001828054610fb990611b1c565b80156110065780601f10610fdb57610100808354040283529160200191611006565b820191906000526020600020905b815481529060010190602001808311610fe957829003601f168201915b50505050508152505090506001600481111561102457611024611805565b816101200151600481111561103b5761103b611805565b146110495750600092915050565b60008160c001514261105b9190611bb8565b9050600061106c6201518083611b96565b905060006237b1d082856060015186604001516110899190611b7f565b6110939190611b7f565b61109d9190611b96565b9695505050505050565b600081815260036020526040902060016008820154600160a01b900460ff1660048111156110d7576110d7611805565b146111115760405162461bcd60e51b815260206004820152600a602482015269139bdd08199d5b99195960b21b604482015260640161050c565b60018101546001600160a01b0316331461115c5760405162461bcd60e51b815260206004820152600c60248201526b2737ba103137b93937bbb2b960a11b604482015260640161050c565b600061116783610ec2565b9050600081836002015461117b9190611b6c565b9050803410156111c65760405162461bcd60e51b8152602060048201526016602482015275125b9cdd59999a58da595b9d081c995c185e5b595b9d60521b604482015260640161050c565b426007840155600883018054600160a11b60ff60a01b198216179091556040516001600160a01b03909116906108fc8315029083906000818181858888f1935050505015801561121a573d6000803e3d6000fd5b50600180840154611236916001600160a01b03909116906115fb565b6002830154604080519182526020820184905285917fd9cfbcfb9ae5d65b8d34072de4575f602ee25cf3715bc05c291701fe9e258f9a910160405180910390a250505050565b6001600160a01b038082166000908152600460208181526040808420815160c0810183528154909616865260018101549286019290925260028201549085018190526003820154606086015281830154608086015260059091015460a085015291929190036112f257506402540be40092915050565b806040015160030361130b575064012a05f20092915050565b80604001516002036113235750633b9aca0092915050565b50630ee6b28092915050565b6113716040518060c0016040528060006001600160a01b0316815260200160008152602001600081526020016000815260200160008152602001600081525090565b506001600160a01b03908116600090815260046020818152604092839020835160c081018552815490951685526001810154918501919091526002810154928401929092526003820154606084015281015460808301526005015460a082015290565b60036020819052600091825260409091208054600182015460028301549383015460048401546005850154600686015460078701546008880154600989018054989a6001600160a01b039889169a909997989697959694959394831693600160a01b90930460ff169290919061144990611b1c565b80601f016020809104026020016040519081016040528092919081815260200182805461147590611b1c565b80156114c25780601f10611497576101008083540402835291602001916114c2565b820191906000526020600020905b8154815290600101906020018083116114a557829003601f168201915b505050505090508b565b6005602052816000526040600020818154811061057157600080fd5b6001600160a01b03811660009081526005602090815260409182902080548351818402810184019094528084526060939283018282801561154857602002820191906000526020600020905b815481526020019060010190808311611534575b50505050509050919050565b6001600160a01b03811660009081526006602090815260409182902080548351818402810184019094528084526060939283018282801561154857602002820191906000526020600020908154815260200190600101908083116115345750505050509050919050565b600061032082106115d157506004919050565b61028a82106115e257506003919050565b6101f482106115f357506002919050565b506001919050565b6001600160a01b0382166000908152600460205260408120600381018054919261162483611bcb565b9190505550811561166c5760048101805490600061164183611bcb565b91905055506116628160010154600a61165a9190611b6c565b610352611700565b60018201556116a5565b60058101805490600061167e83611bcb565b919050555061169f603282600101546116979190611bb8565b61012c61171a565b60018201555b6116b281600101546115be565b6002820181905560018201546040805191825260208201929092526001600160a01b038516917f4f43648f37bc26ee5bc39c60c1c1e2481a9fb9feb9f86419c91b4645585ff3bc910161089b565b600081831061170f5781611711565b825b90505b92915050565b600081831161170f5781611711565b6040518061016001604052806000815260200160006001600160a01b0316815260200160008152602001600081526020016000815260200160008152602001600081526020016000815260200160006001600160a01b031681526020016000600481111561179957611799611805565b8152602001606081525090565b6000602082840312156117b857600080fd5b5035919050565b80356001600160a01b03811681146117d657600080fd5b919050565b600080604083850312156117ee57600080fd5b6117f7836117bf565b946020939093013593505050565b634e487b7160e01b600052602160045260246000fd5b6005811061183957634e487b7160e01b600052602160045260246000fd5b9052565b6000815180845260005b8181101561186357602081850181015186830182015201611847565b506000602082860101526020601f19601f83011685010191505092915050565b6020815281516020820152600060208301516118aa60408401826001600160a01b03169052565b506040830151606083015260608301516080830152608083015160a083015260a083015160c083015260c083015160e083015260e0830151610100818185015280850151915050610120611908818501836001600160a01b03169052565b840151905061014061191c8482018361181b565b84015161016084810152905061193661018084018261183d565b949350505050565b60006020828403121561195057600080fd5b611711826117bf565b634e487b7160e01b600052604160045260246000fd5b6000806000806080858703121561198557600080fd5b843593506020850135925060408501359150606085013567ffffffffffffffff808211156119b257600080fd5b818701915087601f8301126119c657600080fd5b8135818111156119d8576119d8611959565b604051601f8201601f19908116603f01168101908382118183101715611a0057611a00611959565b816040528281528a6020848701011115611a1957600080fd5b82602086016020830137600060208483010152809550505050505092959194509250565b60006101608d835260018060a01b03808e1660208501528c60408501528b60608501528a60808501528960a08501528860c08501528760e085015280871661010085015250611a9061012084018661181b565b80610140840152611aa38184018561183d565b9e9d5050505050505050505050505050565b6020808252825182820181905260009190848201906040850190845b81811015611aed57835183529284019291840191600101611ad1565b50909695505050505050565b6020808252600990820152682737ba1037bbb732b960b91b604082015260600190565b600181811c90821680611b3057607f821691505b602082108103611b5057634e487b7160e01b600052602260045260246000fd5b50919050565b634e487b7160e01b600052601160045260246000fd5b8082018082111561171457611714611b56565b808202811582820484141761171457611714611b56565b600082611bb357634e487b7160e01b600052601260045260246000fd5b500490565b8181038181111561171457611714611b56565b600060018201611bdd57611bdd611b56565b5060010190565b601f821115611c2e57600081815260208120601f850160051c81016020861015611c0b5750805b601f850160051c820191505b81811015611c2a57828155600101611c17565b5050505b505050565b815167ffffffffffffffff811115611c4d57611c4d611959565b611c6181611c5b8454611b1c565b84611be4565b602080601f831160018114611c965760008415611c7e5750858301515b600019600386901b1c1916600185901b178555611c2a565b600085815260208120601f198616915b82811015611cc557888601518255948401946001909101908401611ca6565b5085821015611ce35787850151600019600388901b60f8161c191681555b5050505050600190811b0190555056fea26469706673582212202e1c2b9622451c93a05bf002200be50946bb1ac45f72dc8b7b53d2e3779e95c564736f6c63430008130033",
  "linkReferences": {},
  "deployedLinkReferences": {}
}