{
  "_format": "hh-sol-artifact-1",
  "contractName": "AgentCreditNetworkV1",
  "sourceName": "contracts/AgentCreditNetworkV1.sol",
  "abi": [
    {
      "inputs": [
        {
          "internalType": "address",
          "name": "_feeRecipient",
          "type": "address"
        }
      ],
      "stateMutability": "nonpayable",
      "type": "constructor"
    },
    {
      "anonymous": false,
      "inputs": [
        {
          "indexed": true,
          "internalType": "address",
          "name": "agent",
          "type": "address"
        },
        {
          "indexed": false,
          "internalType": "uint256",
          "name": "score",
          "type": "uint256"
        },
        {
          "indexed": false,
          "internalType": "uint256",
          "name": "tier",
          "type": "uint256"
        }
      ],
      "name": "CreditScoreUpdated",
      "type": "event"
    },
    {
      "anonymous": false,
      "inputs": [
        {
          "indexed": true,
          "internalType": "uint256",
          "name": "loanId",
          "type": "uint256"
        },
        {
          "indexed": false,
          "internalType": "address",
          "name": "lender",
          "type": "address"
        },
        {
          "indexed": false,
          "internalType": "uint256",
          "name": "amount",
          "type": "uint256"
        }
      ],
      "name": "LoanFunded",
      "type": "event"
    },
    {
      "anonymous": false,
      "inputs": [
        {
          "indexed": true,
          "internalType": "uint256",
          "name": "loanId",
          "type": "uint256"
        },
        {
          "indexed": false,
          "internalType": "uint256",
          "name": "amount",
          "type": "uint256"
        },
        {
          "indexed": false,
          "internalType": "uint256",
          "name": "interest",
          "type": "uint256"
        }
      ],
      "name": "LoanRepaid",
      "type": "event"
    },
    {
      "anonymous": false,
      "inputs": [
        {
          "indexed": true,
          "internalType": "uint256",
          "name": "loanId",
          "type": "uint256"
        },
        {
          "indexed": false,
          "internalType": "address",
          "name": "borrower",
          "type": "address"
        },
        {
          "indexed": false,
          "internalType": "uint256",
          "name": "amount",
          "type": "uint256"
        },
        {
          "indexed": false,
          "internalType": "uint256",
          "name": "rate",
          "type": "uint256"
        }
      ],
      "name": "LoanRequested",
      "type": "event"
    },
    {
      "inputs": [
        {
          "internalType": "address",
          "name": "",
          "type": "address"
        },
        {
          "internalType": "uint256",
          "name": "",
          "type": "uint256"
        }
      ],
      "name": "borrowerLoans",
      "outputs": [
        {
          "internalType": "uint256",
          "name": "",
          "type": "uint256"
        }
      ],
      "stateMutability": "view",
      "type": "function"
    },
    {
      "inputs": [
        {
          "internalType": "uint256",
          "name": "_loanId",
          "type": "uint256"
        }
      ],
      "name": "calculateInterest",
      "outputs": [
        {
          "internalType": "uint256",
          "name": "",
          "type": "uint256"
        }
      ],
      "stateMutability": "view",
      "type": "function"
    },
    {
      "inputs": [
        {
          "internalType": "address",
          "name": "",
          "type": "address"
        }
      ],
      "name": "creditScores",
      "outputs": [
        {
          "internalType": "address",
          "name": "agent",
          "type": "address"
        },
        {
          "internalType": "uint256",
          "name": "score",
          "type": "uint256"
        },
        {
          "internalType": "uint256",
          "name": "tier",
          "type": "uint256"
        },
        {
          "internalType": "uint256",
          "name": "totalLoans",
          "type": "uint256"
        },
        {
          "internalType": "uint256",
          "name": "repaidLoans",
          "type": "uint256"
        },
        {
          "internalType": "uint256",
          "name": "defaultedLoans",
          "type": "uint256"
        }
      ],
      "stateMutability": "view",
      "type": "function"
    },
    {
      "inputs": [
        {
          "internalType": "uint256",
          "name": "_loanId",
          "type": "uint256"
        }
      ],
      "name": "fundLoan",
      "outputs": [],
      "stateMutability": "payable",
      "type": "function"
    },
    {
      "inputs": [
        {
          "internalType": "address",
          "name": "_a",
          "type": "address"
        }
      ],
      "name": "getCreditScore",
      "outputs": [
        {
          "components": [
            {
              "internalType": "address",
              "name": "agent",
              "type": "address"
            },
            {
              "internalType": "uint256",
              "name": "score",
              "type": "uint256"
            },
            {
              "internalType": "uint256",
              "name": "tier",
              "type": "uint256"
            },
            {
              "internalType": "uint256",
              "name": "totalLoans",
              "type": "uint256"
            },
            {
              "internalType": "uint256",
              "name": "repaidLoans",
              "type": "uint256"
            },
            {
              "internalType": "uint256",
              "name": "defaultedLoans",
              "type": "uint256"
            }
          ],
          "internalType": "struct AgentCreditNetworkV1.CreditScore",
          "name": "",
          "type": "tuple"
        }
      ],
      "stateMutability": "view",
      "type": "function"
    },
    {
      "inputs": [
        {
          "internalType": "uint256",
          "name": "_id",
          "type": "uint256"
        }
      ],
      "name": "getLoan",
      "outputs": [
        {
          "components": [
            {
              "internalType": "uint256",
              "name": "id",
              "type": "uint256"
            },
            {
              "internalType": "address",
              "name": "borrower",
              "type": "address"
            },
            {
              "internalType": "uint256",
              "name": "amount",
              "type": "uint256"
            },
            {
              "internalType": "uint256",
              "name": "interestRate",
              "type": "uint256"
            },
            {
              "internalType": "uint256",
              "name": "duration",
              "type": "uint256"
            },
            {
              "internalType": "uint256",
              "name": "createdAt",
              "type": "uint256"
            },
            {
              "internalType": "uint256",
              "name": "fundedAt",
              "type": "uint256"
            },
            {
              "internalType": "uint256",
              "name": "repaidAt",
              "type": "uint256"
            },
            {
              "internalType": "address",
              "name": "lender",
              "type": "address"
            },
            {
              "internalType": "enum AgentCreditNetworkV1.LoanStatus",
              "name": "status",
              "type": "uint8"
            },
            {
              "internalType": "string",
              "name": "purpose",
              "type": "string"
            }
          ],
          "internalType": "struct AgentCreditNetworkV1.Loan",
          "name": "",
          "type": "tuple"
        }
      ],
      "stateMutability": "view",
      "type": "function"
    },
    {
      "inputs": [
        {
          "internalType": "address",
          "name": "_a",
          "type": "address"
        }
      ],
      "name": "getMaxLoan",
      "outputs": [
        {
          "internalType": "uint256",
          "name": "",
          "type": "uint256"
        }
      ],
      "stateMutability": "view",
      "type": "function"
    },
    {
      "inputs": [
        {
          "internalType": "address",
          "name": "_agent",
          "type": "address"
        },
        {
          "internalType": "uint256",
          "name": "_score",
          "type": "uint256"
        }
      ],
      "name": "initializeCreditScore",
      "outputs": [],
      "stateMutability": "nonpayable",
      "type": "function"
    },
    {
      "inputs": [
        {
          "internalType": "address",
          "name": "",
          "type": "address"
        },
        {
          "internalType": "uint256",
          "name": "",
          "type": "uint256"
        }
      ],
      "name": "lenderLoans",
      "outputs": [
        {
          "internalType": "uint256",
          "name": "",
          "type": "uint256"
        }
      ],
      "stateMutability": "view",
      "type": "function"
    },
    {
      "inputs": [],
      "name": "loanCounter",
      "outputs": [
        {
          "internalType": "uint256",
          "name": "",
          "type": "uint256"
        }
      ],
      "stateMutability": "view",
      "type": "function"
    },
    {
      "inputs": [
        {
          "internalType": "uint256",
          "name": "",
          "type": "uint256"
        }
      ],
      "name": "loans",
      "outputs": [
        {
          "internalType": "uint256",
          "name": "id",
          "type": "uint256"
        },
        {
          "internalType": "address",
          "name": "borrower",
          "type": "address"
        },
        {
          "internalType": "uint256",
          "name": "amount",
          "type": "uint256"
        },
        {
          "internalType": "uint256",
          "name": "interestRate",
          "type": "uint256"
        },
        {
          "internalType": "uint256",
          "name": "duration",
          "type": "uint256"
        },
        {
          "internalType": "uint256",
          "name": "createdAt",
          "type": "uint256"
        },
        {
          "internalType": "uint256",
          "name": "fundedAt",
          "type": "uint256"
        },
        {
          "internalType": "uint256",
          "name": "repaidAt",
          "type": "uint256"
        },
        {
          "internalType": "address",
          "name": "lender",
          "type": "address"
        },
        {
          "internalType": "enum AgentCreditNetworkV1.LoanStatus",
          "name": "status",
          "type": "uint8"
        },
        {
          "internalType": "string",
          "name": "purpose",
          "type": "string"
        }
      ],
      "stateMutability": "view",
      "type": "function"
    },
    {
      "inputs": [
        {
          "internalType": "uint256",
          "name": "_loanId",
          "type": "uint256"
        }
      ],
      "name": "markDefaulted",
      "outputs": [],
      "stateMutability": "nonpayable",
      "type": "function"
    },
    {
      "inputs": [],
      "name": "owner",
      "outputs": [
        {
          "internalType": "address",
          "name": "",
          "type": "address"
        }
      ],
      "stateMutability": "view",
      "type": "function"
    },
    {
      "inputs": [],
      "name": "platformFee",
      "outputs": [
        {
          "internalType": "uint256",
          "name": "",
          "type": "uint256"
        }
      ],
      "stateMutability": "view",
      "type": "function"
    },
    {
      "inputs": [
        {
          "internalType": "uint256",
          "name": "_loanId",
          "type": "uint256"
        }
      ],
      "name": "repayLoan",
      "outputs": [],
      "stateMutability": "payable",
      "type": "function"
    },
    {
      "inputs": [
        {
          "internalType": "uint256",
          "name": "_amount",
          "type": "uint256"
        },
        {
          "internalType": "uint256",
          "name": "_interestRate",
          "type": "uint256"
        },
        {
          "internalType": "uint256",
          "name": "_duration",
          "type": "uint256"
        },
        {
          "internalType": "string",
          "name": "_purpose",
          "type": "string"
        }
      ],
      "name": "requestLoan",
      "outputs": [
        {
          "internalType": "uint256",
          "name": "",
          "type": "uint256"
        }
      ],
      "stateMutability": "nonpayable",
      "type": "function"
    },
    {
      "inputs": [
        {
          "internalType": "address",
          "name": "",
          "type": "address"
        }
      ],
      "name": "verifiedAgents",
      "outputs": [
        {
          "internalType": "bool",
          "name": "",
          "type": "bool"
        }
      ],
      "stateMutability": "view",
      "type": "function"
    },
    {
      "inputs": [],
      "name": "withdrawFees",
      "outputs": [],
      "stateMutability": "nonpayable",
      "type": "function"
    }
  ],
  "bytecode": "0x608060405260fa60015534801561001557600080fd5b50604051611b8c380380611b8c83398101604081905261003491610059565b600080546001600160a01b0319166001600160a01b0392909216919091179055610089565b60006020828403121561006b57600080fd5b81516001600160a01b038116811461008257600080fd5b9392505050565b611af4806100986000396000f3fe6080604052600436106101095760003560e01c8063846b909a11610095578063ab7b1c8911610064578063ab7b1c891461032d578063ae82455f14610340578063d3dd2bdf14610380578063e1ec3c68146103f0578063e3ed19021461042757600080fd5b8063846b909a146102a257806384733294146102b55780638da5cb5b146102d5578063a57475e01461030d57600080fd5b8063504006ca116100dc578063504006ca1461018457806354cc5c1c146101b15780635527c728146101d157806373216450146101f157806380bb72731461021157600080fd5b806326232a2e1461010e57806334d9289e146101375780633cdb72f11461014d578063476343ee1461016d575b600080fd5b34801561011a57600080fd5b5061012460015481565b6040519081526020015b60405180910390f35b34801561014357600080fd5b5061012460025481565b34801561015957600080fd5b506101246101683660046115fc565b610447565b34801561017957600080fd5b50610182610478565b005b34801561019057600080fd5b506101a461019f366004611626565b610500565b60405161012e91906116bd565b3480156101bd57600080fd5b506101246101cc366004611770565b610658565b3480156101dd57600080fd5b506101826101ec3660046115fc565b6106c0565b3480156101fd57600080fd5b5061018261020c366004611626565b610839565b34801561021d57600080fd5b5061026b61022c366004611770565b60046020819052600091825260409091208054600182015460028301546003840154948401546005909401546001600160a01b03909316949193909286565b604080516001600160a01b0390971687526020870195909552938501929092526060840152608083015260a082015260c00161012e565b6101826102b0366004611626565b61093e565b3480156102c157600080fd5b506101246102d03660046117a1565b610b92565b3480156102e157600080fd5b506000546102f5906001600160a01b031681565b6040516001600160a01b03909116815260200161012e565b34801561031957600080fd5b50610124610328366004611626565b610ea6565b61018261033b366004611626565b611084565b34801561034c57600080fd5b5061037061035b366004611770565b60076020526000908152604090205460ff1681565b604051901515815260200161012e565b34801561038c57600080fd5b506103a061039b366004611770565b61123f565b60405161012e919081516001600160a01b031681526020808301519082015260408083015190820152606080830151908201526080808301519082015260a0918201519181019190915260c00190565b3480156103fc57600080fd5b5061041061040b366004611626565b6112e4565b60405161012e9b9a9998979695949392919061186f565b34801561043357600080fd5b506101246104423660046115fc565b6113dc565b6006602052816000526040600020818154811061046357600080fd5b90600052602060002001600091509150505481565b6000546001600160a01b031633146104c35760405162461bcd60e51b81526020600482015260096024820152682737ba1037bbb732b960b91b60448201526064015b60405180910390fd5b600080546040516001600160a01b03909116914780156108fc02929091818181858888f193505050501580156104fd573d6000803e3d6000fd5b50565b610508611563565b6000828152600360208181526040928390208351610160810185528154815260018201546001600160a01b039081169382019390935260028201549481019490945280830154606085015260048101546080850152600581015460a0850152600681015460c0850152600781015460e0850152600881015491821661010085015291610120840191600160a01b900460ff16908111156105aa576105aa61163f565b60038111156105bb576105bb61163f565b81526020016009820180546105cf906118e7565b80601f01602080910402602001604051908101604052809291908181526020018280546105fb906118e7565b80156106485780601f1061061d57610100808354040283529160200191610648565b820191906000526020600020905b81548152906001019060200180831161062b57829003601f168201915b5050505050815250509050919050565b6001600160a01b03811660009081526004602081905260408220600201549081900361068b57506402540be40092915050565b806003036106a0575064012a05f20092915050565b806002036106b45750633b9aca0092915050565b50630ee6b28092915050565b6000546001600160a01b031633146107065760405162461bcd60e51b81526020600482015260096024820152682737ba1037bbb732b960b91b60448201526064016104ba565b61012c811015801561071a57506103528111155b6107505760405162461bcd60e51b8152602060048201526007602482015266125b9d985b1a5960ca1b60448201526064016104ba565b600061075b826113f8565b6040805160c0810182526001600160a01b0386811680835260208084018881528486018781526000606087018181526080880182815260a0890183815287845260048088528b85209a518b546001600160a01b0319169a16999099178a5594516001808b0191909155935160028a015590516003890155519587019590955590516005909501949094556007815291849020805460ff19169093179092558251868152908101849052929350917f4f43648f37bc26ee5bc39c60c1c1e2481a9fb9feb9f86419c91b4645585ff3bc91015b60405180910390a2505050565b600081815260036020526040902060016008820154600160a01b900460ff1660038111156108695761086961163f565b146108a35760405162461bcd60e51b815260206004820152600a602482015269139bdd08199d5b99195960b21b60448201526064016104ba565b60048101546108b3906007611937565b6108c0906201518061194a565b81600601546108cf9190611937565b421161090c5760405162461bcd60e51b815260206004820152600c60248201526b11dc9858d9481c195c9a5bd960a21b60448201526064016104ba565b60088101805460ff60a01b1916600360a01b179055600181015461093a906001600160a01b03166000611435565b5050565b3360009081526007602052604090205460ff1661098c5760405162461bcd60e51b815260206004820152600c60248201526b139bdd081d995c9a599a595960a21b60448201526064016104ba565b6000818152600360205260408120906008820154600160a01b900460ff1660038111156109bb576109bb61163f565b146109f85760405162461bcd60e51b815260206004820152600d60248201526c4e6f7420617661696c61626c6560981b60448201526064016104ba565b6001810154336001600160a01b0390911603610a475760405162461bcd60e51b815260206004820152600e60248201526d21b0b713ba10333ab7321037bbb760911b60448201526064016104ba565b8060020154341015610a905760405162461bcd60e51b8152602060048201526012602482015271496e73756666696369656e742066756e647360701b60448201526064016104ba565b60006127106001548360020154610aa7919061194a565b610ab19190611961565b600883018054426006808701919091553360ff60a01b1981166001600160a81b031990931692909217600160a01b1790925560009081526020918252604081208054600181810183559183529290912090910185905583015460028401549192506001600160a01b0316906108fc90610b2b908490611983565b6040518115909202916000818181858888f19350505050158015610b53573d6000803e3d6000fd5b50600282015460408051338152602081019290925284917fbd7ef6c6281278f6c8ac4ae9ef2f205b52425813c288dd47c377cb6b59c5076e910161082c565b3360009081526007602052604081205460ff16610be05760405162461bcd60e51b815260206004820152600c60248201526b139bdd081d995c9a599a595960a21b60448201526064016104ba565b620f4240851015610c1c5760405162461bcd60e51b81526020600482015260066024820152654d696e20243160d01b60448201526064016104ba565b6402540be400851115610c5c5760405162461bcd60e51b81526020600482015260086024820152674d6178202431304b60c01b60448201526064016104ba565b6101f48410158015610c7057506109c48411155b610ca95760405162461bcd60e51b815260206004820152600a6024820152695261746520352d32352560b01b60448201526064016104ba565b60078310158015610cbb575060b48311155b610cf45760405162461bcd60e51b815260206004820152600a602482015269372d313830206461797360b01b60448201526064016104ba565b60028054906000610d0483611996565b9091555050600254604080516101608101825282815233602082015290810187905260608101869052608081018590524260a0820152600060c0820181905260e082018190526101008201819052610120820190815260209081018590526000838152600380835260409182902084518155928401516001840180546001600160a01b03199081166001600160a01b03938416179091559285015160028501556060850151848301556080850151600485015560a0850151600585015560c0850151600685015560e085015160078501556101008501516008850180549485169190921690811782556101208601519391926001600160a81b03199092161790600160a01b908490811115610e1b57610e1b61163f565b02179055506101408201516009820190610e3590826119fe565b50503360008181526005602090815260408083208054600181018255908452928290209092018590558151928352820189905281018790528291507f68595dbe887ae7f496f2c88735019a8918919a1decfdee6bdb460480ab87decb9060600160405180910390a295945050505050565b60008181526003602081815260408084208151610160810183528154815260018201546001600160a01b039081169482019490945260028201549281019290925280840154606083015260048101546080830152600581015460a0830152600681015460c0830152600781015460e08301526008810154928316610100830152849391929091610120840191600160a01b900460ff1690811115610f4c57610f4c61163f565b6003811115610f5d57610f5d61163f565b8152602001600982018054610f71906118e7565b80601f0160208091040260200160405190810160405280929190818152602001828054610f9d906118e7565b8015610fea5780601f10610fbf57610100808354040283529160200191610fea565b820191906000526020600020905b815481529060010190602001808311610fcd57829003601f168201915b5050505050815250509050600160038111156110085761100861163f565b816101200151600381111561101f5761101f61163f565b1461102d5750600092915050565b6000620151808260c00151426110439190611983565b61104d9190611961565b90506237b1d08183606001518460400151611068919061194a565b611072919061194a565b61107c9190611961565b949350505050565b600081815260036020526040902060016008820154600160a01b900460ff1660038111156110b4576110b461163f565b146110ee5760405162461bcd60e51b815260206004820152600a602482015269139bdd08199d5b99195960b21b60448201526064016104ba565b60018101546001600160a01b031633146111395760405162461bcd60e51b815260206004820152600c60248201526b2737ba103137b93937bbb2b960a11b60448201526064016104ba565b600061114483610ea6565b905060008183600201546111589190611937565b9050803410156111995760405162461bcd60e51b815260206004820152600c60248201526b125b9cdd59999a58da595b9d60a21b60448201526064016104ba565b426007840155600883018054600160a11b60ff60a01b198216179091556040516001600160a01b03909116906108fc8315029083906000818181858888f193505050501580156111ed573d6000803e3d6000fd5b506111f9336001611435565b6002830154604080519182526020820184905285917fd9cfbcfb9ae5d65b8d34072de4575f602ee25cf3715bc05c291701fe9e258f9a910160405180910390a250505050565b6112816040518060c0016040528060006001600160a01b0316815260200160008152602001600081526020016000815260200160008152602001600081525090565b506001600160a01b03908116600090815260046020818152604092839020835160c081018552815490951685526001810154918501919091526002810154928401929092526003820154606084015281015460808301526005015460a082015290565b60036020819052600091825260409091208054600182015460028301549383015460048401546005850154600686015460078701546008880154600989018054989a6001600160a01b039889169a909997989697959694959394831693600160a01b90930460ff1692909190611359906118e7565b80601f0160208091040260200160405190810160405280929190818152602001828054611385906118e7565b80156113d25780601f106113a7576101008083540402835291602001916113d2565b820191906000526020600020905b8154815290600101906020018083116113b557829003601f168201915b505050505090508b565b6005602052816000526040600020818154811061046357600080fd5b6000610320821061140b57506004919050565b61028a821061141c57506003919050565b6101f4821061142d57506002919050565b506001919050565b6001600160a01b0382166000908152600460205260408120600381018054919261145e83611996565b919050555081156114a65760048101805490600061147b83611996565b919050555061149c8160010154600a6114949190611937565b61035261153a565b60018201556114df565b6005810180549060006114b883611996565b91905055506114d9603282600101546114d19190611983565b61012c611554565b60018201555b6114ec81600101546113f8565b6002820181905560018201546040805191825260208201929092526001600160a01b038516917f4f43648f37bc26ee5bc39c60c1c1e2481a9fb9feb9f86419c91b4645585ff3bc910161082c565b6000818310611549578161154b565b825b90505b92915050565b6000818311611549578161154b565b6040518061016001604052806000815260200160006001600160a01b0316815260200160008152602001600081526020016000815260200160008152602001600081526020016000815260200160006001600160a01b03168152602001600060038111156115d3576115d361163f565b8152602001606081525090565b80356001600160a01b03811681146115f757600080fd5b919050565b6000806040838503121561160f57600080fd5b611618836115e0565b946020939093013593505050565b60006020828403121561163857600080fd5b5035919050565b634e487b7160e01b600052602160045260246000fd5b6004811061167357634e487b7160e01b600052602160045260246000fd5b9052565b6000815180845260005b8181101561169d57602081850181015186830182015201611681565b506000602082860101526020601f19601f83011685010191505092915050565b6020815281516020820152600060208301516116e460408401826001600160a01b03169052565b506040830151606083015260608301516080830152608083015160a083015260a083015160c083015260c083015160e083015260e0830151610100818185015280850151915050610120611742818501836001600160a01b03169052565b840151905061014061175684820183611655565b84015161016084810152905061107c610180840182611677565b60006020828403121561178257600080fd5b61154b826115e0565b634e487b7160e01b600052604160045260246000fd5b600080600080608085870312156117b757600080fd5b843593506020850135925060408501359150606085013567ffffffffffffffff808211156117e457600080fd5b818701915087601f8301126117f857600080fd5b81358181111561180a5761180a61178b565b604051601f8201601f19908116603f011681019083821181831017156118325761183261178b565b816040528281528a602084870101111561184b57600080fd5b82602086016020830137600060208483010152809550505050505092959194509250565b60006101608d835260018060a01b03808e1660208501528c60408501528b60608501528a60808501528960a08501528860c08501528760e0850152808716610100850152506118c2610120840186611655565b806101408401526118d581840185611677565b9e9d5050505050505050505050505050565b600181811c908216806118fb57607f821691505b60208210810361191b57634e487b7160e01b600052602260045260246000fd5b50919050565b634e487b7160e01b600052601160045260246000fd5b8082018082111561154e5761154e611921565b808202811582820484141761154e5761154e611921565b60008261197e57634e487b7160e01b600052601260045260246000fd5b500490565b8181038181111561154e5761154e611921565b6000600182016119a8576119a8611921565b5060010190565b601f8211156119f957600081815260208120601f850160051c810160208610156119d65750805b601f850160051c820191505b818110156119f5578281556001016119e2565b5050505b505050565b815167ffffffffffffffff811115611a1857611a1861178b565b611a2c81611a2684546118e7565b846119af565b602080601f831160018114611a615760008415611a495750858301515b600019600386901b1c1916600185901b1785556119f5565b600085815260208120601f198616915b82811015611a9057888601518255948401946001909101908401611a71565b5085821015611aae5787850151600019600388901b60f8161c191681555b5050505050600190811b0190555056fea264697066735822122081b6e4b50a550aeb1a77b08ef2c54231e36c1ffde200e5c28ae11e0b5adeddfa64736f6c63430008130033",
  "linkReferences": {},
  "deployedLinkReferences": {}
}